{
	"contracts/User.sol": {
		"User": {
			"abi": [
				{
					"inputs": [],
					"stateMutability": "nonpayable",
					"type": "constructor"
				},
				{
					"anonymous": false,
					"inputs": [
						{
							"indexed": true,
							"internalType": "address",
							"name": "user",
							"type": "address"
						},
						{
							"indexed": false,
							"internalType": "string",
							"name": "name",
							"type": "string"
						},
						{
							"indexed": false,
							"internalType": "uint256",
							"name": "time",
							"type": "uint256"
						}
					],
					"name": "NewUser",
					"type": "event"
				},
				{
					"inputs": [
						{
							"internalType": "uint128",
							"name": "",
							"type": "uint128"
						}
					],
					"name": "MyName",
					"outputs": [
						{
							"internalType": "string",
							"name": "",
							"type": "string"
						}
					],
					"stateMutability": "view",
					"type": "function"
				},
				{
					"inputs": [
						{
							"internalType": "uint128",
							"name": "_id",
							"type": "uint128"
						}
					],
					"name": "getName",
					"outputs": [
						{
							"internalType": "string",
							"name": "",
							"type": "string"
						}
					],
					"stateMutability": "view",
					"type": "function"
				},
				{
					"inputs": [],
					"name": "owner",
					"outputs": [
						{
							"internalType": "address",
							"name": "",
							"type": "address"
						}
					],
					"stateMutability": "view",
					"type": "function"
				},
				{
					"inputs": [
						{
							"internalType": "uint128",
							"name": "_id",
							"type": "uint128"
						}
					],
					"name": "resetName",
					"outputs": [],
					"stateMutability": "nonpayable",
					"type": "function"
				},
				{
					"inputs": [
						{
							"internalType": "string",
							"name": "_name",
							"type": "string"
						},
						{
							"internalType": "uint128",
							"name": "_id",
							"type": "uint128"
						}
					],
					"name": "setName",
					"outputs": [],
					"stateMutability": "nonpayable",
					"type": "function"
				}
			],
			"devdoc": {
				"kind": "dev",
				"methods": {},
				"version": 1
			},
			"evm": {
				"assembly": "    /* \"contracts/User.sol\":77:898  contract User {... */\n  mstore(0x40, 0x80)\n    /* \"contracts/User.sol\":124:173  constructor() {... */\n  callvalue\n  dup1\n  iszero\n  tag_1\n  jumpi\n  0x00\n  dup1\n  revert\ntag_1:\n  pop\n    /* \"contracts/User.sol\":156:166  msg.sender */\n  caller\n    /* \"contracts/User.sol\":148:153  owner */\n  0x00\n  dup1\n    /* \"contracts/User.sol\":148:166  owner = msg.sender */\n  0x0100\n  exp\n  dup2\n  sload\n  dup2\n  0xffffffffffffffffffffffffffffffffffffffff\n  mul\n  not\n  and\n  swap1\n  dup4\n  0xffffffffffffffffffffffffffffffffffffffff\n  and\n  mul\n  or\n  swap1\n  sstore\n  pop\n    /* \"contracts/User.sol\":77:898  contract User {... */\n  dataSize(sub_0)\n  dup1\n  dataOffset(sub_0)\n  0x00\n  codecopy\n  0x00\n  return\nstop\n\nsub_0: assembly {\n        /* \"contracts/User.sol\":77:898  contract User {... */\n      mstore(0x40, 0x80)\n      callvalue\n      dup1\n      iszero\n      tag_1\n      jumpi\n      0x00\n      dup1\n      revert\n    tag_1:\n      pop\n      jumpi(tag_2, lt(calldatasize, 0x04))\n      shr(0xe0, calldataload(0x00))\n      dup1\n      0x5b8a0f\n      eq\n      tag_3\n      jumpi\n      dup1\n      0x2b64d441\n      eq\n      tag_4\n      jumpi\n      dup1\n      0x411bc8c2\n      eq\n      tag_5\n      jumpi\n      dup1\n      0x8da5cb5b\n      eq\n      tag_6\n      jumpi\n      dup1\n      0x997db5ce\n      eq\n      tag_7\n      jumpi\n    tag_2:\n      0x00\n      dup1\n      revert\n        /* \"contracts/User.sol\":804:896  function resetName(uint128 _id) public onlyOwner validAddr {... */\n    tag_3:\n      tag_8\n      0x04\n      dup1\n      calldatasize\n      sub\n      dup2\n      add\n      swap1\n      tag_9\n      swap2\n      swap1\n      tag_10\n      jump\t// in\n    tag_9:\n      tag_11\n      jump\t// in\n    tag_8:\n      stop\n        /* \"contracts/User.sol\":697:798  function getName(uint128 _id) public view returns (string memory) {... */\n    tag_4:\n      tag_12\n      0x04\n      dup1\n      calldatasize\n      sub\n      dup2\n      add\n      swap1\n      tag_13\n      swap2\n      swap1\n      tag_10\n      jump\t// in\n    tag_13:\n      tag_14\n      jump\t// in\n    tag_12:\n      mload(0x40)\n      tag_15\n      swap2\n      swap1\n      tag_16\n      jump\t// in\n    tag_15:\n      mload(0x40)\n      dup1\n      swap2\n      sub\n      swap1\n      return\n        /* \"contracts/User.sol\":396:436  mapping(uint128 => string) public MyName */\n    tag_5:\n      tag_17\n      0x04\n      dup1\n      calldatasize\n      sub\n      dup2\n      add\n      swap1\n      tag_18\n      swap2\n      swap1\n      tag_10\n      jump\t// in\n    tag_18:\n      tag_19\n      jump\t// in\n    tag_17:\n      mload(0x40)\n      tag_20\n      swap2\n      swap1\n      tag_16\n      jump\t// in\n    tag_20:\n      mload(0x40)\n      dup1\n      swap2\n      sub\n      swap1\n      return\n        /* \"contracts/User.sol\":97:117  address public owner */\n    tag_6:\n      tag_21\n      tag_22\n      jump\t// in\n    tag_21:\n      mload(0x40)\n      tag_23\n      swap2\n      swap1\n      tag_24\n      jump\t// in\n    tag_23:\n      mload(0x40)\n      dup1\n      swap2\n      sub\n      swap1\n      return\n        /* \"contracts/User.sol\":511:691  function setName(string memory _name, uint128 _id) public onlyOwner validAddr {... */\n    tag_7:\n      tag_25\n      0x04\n      dup1\n      calldatasize\n      sub\n      dup2\n      add\n      swap1\n      tag_26\n      swap2\n      swap1\n      tag_27\n      jump\t// in\n    tag_26:\n      tag_28\n      jump\t// in\n    tag_25:\n      stop\n        /* \"contracts/User.sol\":804:896  function resetName(uint128 _id) public onlyOwner validAddr {... */\n    tag_11:\n        /* \"contracts/User.sol\":229:234  owner */\n      0x00\n      dup1\n      sload\n      swap1\n      0x0100\n      exp\n      swap1\n      div\n      0xffffffffffffffffffffffffffffffffffffffff\n      and\n        /* \"contracts/User.sol\":215:234  msg.sender == owner */\n      0xffffffffffffffffffffffffffffffffffffffff\n      and\n        /* \"contracts/User.sol\":215:225  msg.sender */\n      caller\n        /* \"contracts/User.sol\":215:234  msg.sender == owner */\n      0xffffffffffffffffffffffffffffffffffffffff\n      and\n      eq\n        /* \"contracts/User.sol\":207:263  require(msg.sender == owner, \"you have to be the owner\") */\n      tag_30\n      jumpi\n      mload(0x40)\n      0x08c379a000000000000000000000000000000000000000000000000000000000\n      dup2\n      mstore\n      0x04\n      add\n      tag_31\n      swap1\n      tag_32\n      jump\t// in\n    tag_31:\n      mload(0x40)\n      dup1\n      swap2\n      sub\n      swap1\n      revert\n    tag_30:\n        /* \"contracts/User.sol\":343:344  0 */\n      0x00\n        /* \"contracts/User.sol\":321:345  msg.sender != address(0) */\n      0xffffffffffffffffffffffffffffffffffffffff\n      and\n        /* \"contracts/User.sol\":321:331  msg.sender */\n      caller\n        /* \"contracts/User.sol\":321:345  msg.sender != address(0) */\n      0xffffffffffffffffffffffffffffffffffffffff\n      and\n      sub\n        /* \"contracts/User.sol\":313:374  require(msg.sender != address(0), \"you have to be the owner\") */\n      tag_34\n      jumpi\n      mload(0x40)\n      0x08c379a000000000000000000000000000000000000000000000000000000000\n      dup2\n      mstore\n      0x04\n      add\n      tag_35\n      swap1\n      tag_32\n      jump\t// in\n    tag_35:\n      mload(0x40)\n      dup1\n      swap2\n      sub\n      swap1\n      revert\n    tag_34:\n        /* \"contracts/User.sol\":878:884  MyName */\n      0x01\n        /* \"contracts/User.sol\":878:889  MyName[_id] */\n      0x00\n        /* \"contracts/User.sol\":885:888  _id */\n      dup3\n        /* \"contracts/User.sol\":878:889  MyName[_id] */\n      0xffffffffffffffffffffffffffffffff\n      and\n      0xffffffffffffffffffffffffffffffff\n      and\n      dup2\n      mstore\n      0x20\n      add\n      swap1\n      dup2\n      mstore\n      0x20\n      add\n      0x00\n      keccak256\n      0x00\n        /* \"contracts/User.sol\":871:889  delete MyName[_id] */\n      tag_37\n      swap2\n      swap1\n      tag_38\n      jump\t// in\n    tag_37:\n        /* \"contracts/User.sol\":804:896  function resetName(uint128 _id) public onlyOwner validAddr {... */\n      pop\n      jump\t// out\n        /* \"contracts/User.sol\":697:798  function getName(uint128 _id) public view returns (string memory) {... */\n    tag_14:\n        /* \"contracts/User.sol\":748:761  string memory */\n      0x60\n        /* \"contracts/User.sol\":780:786  MyName */\n      0x01\n        /* \"contracts/User.sol\":780:791  MyName[_id] */\n      0x00\n        /* \"contracts/User.sol\":787:790  _id */\n      dup4\n        /* \"contracts/User.sol\":780:791  MyName[_id] */\n      0xffffffffffffffffffffffffffffffff\n      and\n      0xffffffffffffffffffffffffffffffff\n      and\n      dup2\n      mstore\n      0x20\n      add\n      swap1\n      dup2\n      mstore\n      0x20\n      add\n      0x00\n      keccak256\n        /* \"contracts/User.sol\":773:791  return MyName[_id] */\n      dup1\n      sload\n      tag_40\n      swap1\n      tag_41\n      jump\t// in\n    tag_40:\n      dup1\n      0x1f\n      add\n      0x20\n      dup1\n      swap2\n      div\n      mul\n      0x20\n      add\n      mload(0x40)\n      swap1\n      dup2\n      add\n      0x40\n      mstore\n      dup1\n      swap3\n      swap2\n      swap1\n      dup2\n      dup2\n      mstore\n      0x20\n      add\n      dup3\n      dup1\n      sload\n      tag_42\n      swap1\n      tag_41\n      jump\t// in\n    tag_42:\n      dup1\n      iszero\n      tag_43\n      jumpi\n      dup1\n      0x1f\n      lt\n      tag_44\n      jumpi\n      0x0100\n      dup1\n      dup4\n      sload\n      div\n      mul\n      dup4\n      mstore\n      swap2\n      0x20\n      add\n      swap2\n      jump(tag_43)\n    tag_44:\n      dup3\n      add\n      swap2\n      swap1\n      0x00\n      mstore\n      keccak256(0x00, 0x20)\n      swap1\n    tag_45:\n      dup2\n      sload\n      dup2\n      mstore\n      swap1\n      0x01\n      add\n      swap1\n      0x20\n      add\n      dup1\n      dup4\n      gt\n      tag_45\n      jumpi\n      dup3\n      swap1\n      sub\n      0x1f\n      and\n      dup3\n      add\n      swap2\n    tag_43:\n      pop\n      pop\n      pop\n      pop\n      pop\n      swap1\n      pop\n        /* \"contracts/User.sol\":697:798  function getName(uint128 _id) public view returns (string memory) {... */\n      swap2\n      swap1\n      pop\n      jump\t// out\n        /* \"contracts/User.sol\":396:436  mapping(uint128 => string) public MyName */\n    tag_19:\n      mstore(0x20, 0x01)\n      dup1\n      0x00\n      mstore\n      keccak256(0x00, 0x40)\n      0x00\n      swap2\n      pop\n      swap1\n      pop\n      dup1\n      sload\n      tag_46\n      swap1\n      tag_41\n      jump\t// in\n    tag_46:\n      dup1\n      0x1f\n      add\n      0x20\n      dup1\n      swap2\n      div\n      mul\n      0x20\n      add\n      mload(0x40)\n      swap1\n      dup2\n      add\n      0x40\n      mstore\n      dup1\n      swap3\n      swap2\n      swap1\n      dup2\n      dup2\n      mstore\n      0x20\n      add\n      dup3\n      dup1\n      sload\n      tag_47\n      swap1\n      tag_41\n      jump\t// in\n    tag_47:\n      dup1\n      iszero\n      tag_48\n      jumpi\n      dup1\n      0x1f\n      lt\n      tag_49\n      jumpi\n      0x0100\n      dup1\n      dup4\n      sload\n      div\n      mul\n      dup4\n      mstore\n      swap2\n      0x20\n      add\n      swap2\n      jump(tag_48)\n    tag_49:\n      dup3\n      add\n      swap2\n      swap1\n      0x00\n      mstore\n      keccak256(0x00, 0x20)\n      swap1\n    tag_50:\n      dup2\n      sload\n      dup2\n      mstore\n      swap1\n      0x01\n      add\n      swap1\n      0x20\n      add\n      dup1\n      dup4\n      gt\n      tag_50\n      jumpi\n      dup3\n      swap1\n      sub\n      0x1f\n      and\n      dup3\n      add\n      swap2\n    tag_48:\n      pop\n      pop\n      pop\n      pop\n      pop\n      dup2\n      jump\t// out\n        /* \"contracts/User.sol\":97:117  address public owner */\n    tag_22:\n      0x00\n      dup1\n      sload\n      swap1\n      0x0100\n      exp\n      swap1\n      div\n      0xffffffffffffffffffffffffffffffffffffffff\n      and\n      dup2\n      jump\t// out\n        /* \"contracts/User.sol\":511:691  function setName(string memory _name, uint128 _id) public onlyOwner validAddr {... */\n    tag_28:\n        /* \"contracts/User.sol\":229:234  owner */\n      0x00\n      dup1\n      sload\n      swap1\n      0x0100\n      exp\n      swap1\n      div\n      0xffffffffffffffffffffffffffffffffffffffff\n      and\n        /* \"contracts/User.sol\":215:234  msg.sender == owner */\n      0xffffffffffffffffffffffffffffffffffffffff\n      and\n        /* \"contracts/User.sol\":215:225  msg.sender */\n      caller\n        /* \"contracts/User.sol\":215:234  msg.sender == owner */\n      0xffffffffffffffffffffffffffffffffffffffff\n      and\n      eq\n        /* \"contracts/User.sol\":207:263  require(msg.sender == owner, \"you have to be the owner\") */\n      tag_52\n      jumpi\n      mload(0x40)\n      0x08c379a000000000000000000000000000000000000000000000000000000000\n      dup2\n      mstore\n      0x04\n      add\n      tag_53\n      swap1\n      tag_32\n      jump\t// in\n    tag_53:\n      mload(0x40)\n      dup1\n      swap2\n      sub\n      swap1\n      revert\n    tag_52:\n        /* \"contracts/User.sol\":343:344  0 */\n      0x00\n        /* \"contracts/User.sol\":321:345  msg.sender != address(0) */\n      0xffffffffffffffffffffffffffffffffffffffff\n      and\n        /* \"contracts/User.sol\":321:331  msg.sender */\n      caller\n        /* \"contracts/User.sol\":321:345  msg.sender != address(0) */\n      0xffffffffffffffffffffffffffffffffffffffff\n      and\n      sub\n        /* \"contracts/User.sol\":313:374  require(msg.sender != address(0), \"you have to be the owner\") */\n      tag_55\n      jumpi\n      mload(0x40)\n      0x08c379a000000000000000000000000000000000000000000000000000000000\n      dup2\n      mstore\n      0x04\n      add\n      tag_56\n      swap1\n      tag_32\n      jump\t// in\n    tag_56:\n      mload(0x40)\n      dup1\n      swap2\n      sub\n      swap1\n      revert\n    tag_55:\n        /* \"contracts/User.sol\":621:626  _name */\n      dup2\n        /* \"contracts/User.sol\":607:613  MyName */\n      0x01\n        /* \"contracts/User.sol\":607:618  MyName[_id] */\n      0x00\n        /* \"contracts/User.sol\":614:617  _id */\n      dup4\n        /* \"contracts/User.sol\":607:618  MyName[_id] */\n      0xffffffffffffffffffffffffffffffff\n      and\n      0xffffffffffffffffffffffffffffffff\n      and\n      dup2\n      mstore\n      0x20\n      add\n      swap1\n      dup2\n      mstore\n      0x20\n      add\n      0x00\n      keccak256\n        /* \"contracts/User.sol\":607:626  MyName[_id] = _name */\n      swap1\n      dup2\n      tag_58\n      swap2\n      swap1\n      tag_59\n      jump\t// in\n    tag_58:\n      pop\n        /* \"contracts/User.sol\":649:659  msg.sender */\n      caller\n        /* \"contracts/User.sol\":641:684  NewUser(msg.sender, _name, block.timestamp) */\n      0xffffffffffffffffffffffffffffffffffffffff\n      and\n      0x329d359cf9f4051167ad17cee4f7c13e33128369772783e288c19fcdd1384fed\n        /* \"contracts/User.sol\":661:666  _name */\n      dup4\n        /* \"contracts/User.sol\":668:683  block.timestamp */\n      timestamp\n        /* \"contracts/User.sol\":641:684  NewUser(msg.sender, _name, block.timestamp) */\n      mload(0x40)\n      tag_60\n      swap3\n      swap2\n      swap1\n      tag_61\n      jump\t// in\n    tag_60:\n      mload(0x40)\n      dup1\n      swap2\n      sub\n      swap1\n      log2\n        /* \"contracts/User.sol\":511:691  function setName(string memory _name, uint128 _id) public onlyOwner validAddr {... */\n      pop\n      pop\n      jump\t// out\n    tag_38:\n      pop\n      dup1\n      sload\n      tag_62\n      swap1\n      tag_41\n      jump\t// in\n    tag_62:\n      0x00\n      dup3\n      sstore\n      dup1\n      0x1f\n      lt\n      tag_64\n      jumpi\n      pop\n      jump(tag_63)\n    tag_64:\n      0x1f\n      add\n      0x20\n      swap1\n      div\n      swap1\n      0x00\n      mstore\n      keccak256(0x00, 0x20)\n      swap1\n      dup2\n      add\n      swap1\n      tag_65\n      swap2\n      swap1\n      tag_66\n      jump\t// in\n    tag_65:\n    tag_63:\n      pop\n      jump\t// out\n    tag_66:\n    tag_67:\n      dup1\n      dup3\n      gt\n      iszero\n      tag_68\n      jumpi\n      0x00\n      dup2\n      0x00\n      swap1\n      sstore\n      pop\n      0x01\n      add\n      jump(tag_67)\n    tag_68:\n      pop\n      swap1\n      jump\t// out\n        /* \"#utility.yul\":7:82   */\n    tag_69:\n        /* \"#utility.yul\":40:46   */\n      0x00\n        /* \"#utility.yul\":73:75   */\n      0x40\n        /* \"#utility.yul\":67:76   */\n      mload\n        /* \"#utility.yul\":57:76   */\n      swap1\n      pop\n        /* \"#utility.yul\":7:82   */\n      swap1\n      jump\t// out\n        /* \"#utility.yul\":88:205   */\n    tag_70:\n        /* \"#utility.yul\":197:198   */\n      0x00\n        /* \"#utility.yul\":194:195   */\n      dup1\n        /* \"#utility.yul\":187:199   */\n      revert\n        /* \"#utility.yul\":211:328   */\n    tag_71:\n        /* \"#utility.yul\":320:321   */\n      0x00\n        /* \"#utility.yul\":317:318   */\n      dup1\n        /* \"#utility.yul\":310:322   */\n      revert\n        /* \"#utility.yul\":334:452   */\n    tag_72:\n        /* \"#utility.yul\":371:378   */\n      0x00\n        /* \"#utility.yul\":411:445   */\n      0xffffffffffffffffffffffffffffffff\n        /* \"#utility.yul\":404:409   */\n      dup3\n        /* \"#utility.yul\":400:446   */\n      and\n        /* \"#utility.yul\":389:446   */\n      swap1\n      pop\n        /* \"#utility.yul\":334:452   */\n      swap2\n      swap1\n      pop\n      jump\t// out\n        /* \"#utility.yul\":458:580   */\n    tag_73:\n        /* \"#utility.yul\":531:555   */\n      tag_118\n        /* \"#utility.yul\":549:554   */\n      dup2\n        /* \"#utility.yul\":531:555   */\n      tag_72\n      jump\t// in\n    tag_118:\n        /* \"#utility.yul\":524:529   */\n      dup2\n        /* \"#utility.yul\":521:556   */\n      eq\n        /* \"#utility.yul\":511:574   */\n      tag_119\n      jumpi\n        /* \"#utility.yul\":570:571   */\n      0x00\n        /* \"#utility.yul\":567:568   */\n      dup1\n        /* \"#utility.yul\":560:572   */\n      revert\n        /* \"#utility.yul\":511:574   */\n    tag_119:\n        /* \"#utility.yul\":458:580   */\n      pop\n      jump\t// out\n        /* \"#utility.yul\":586:725   */\n    tag_74:\n        /* \"#utility.yul\":632:637   */\n      0x00\n        /* \"#utility.yul\":670:676   */\n      dup2\n        /* \"#utility.yul\":657:677   */\n      calldataload\n        /* \"#utility.yul\":648:677   */\n      swap1\n      pop\n        /* \"#utility.yul\":686:719   */\n      tag_121\n        /* \"#utility.yul\":713:718   */\n      dup2\n        /* \"#utility.yul\":686:719   */\n      tag_73\n      jump\t// in\n    tag_121:\n        /* \"#utility.yul\":586:725   */\n      swap3\n      swap2\n      pop\n      pop\n      jump\t// out\n        /* \"#utility.yul\":731:1060   */\n    tag_10:\n        /* \"#utility.yul\":790:796   */\n      0x00\n        /* \"#utility.yul\":839:841   */\n      0x20\n        /* \"#utility.yul\":827:836   */\n      dup3\n        /* \"#utility.yul\":818:825   */\n      dup5\n        /* \"#utility.yul\":814:837   */\n      sub\n        /* \"#utility.yul\":810:842   */\n      slt\n        /* \"#utility.yul\":807:926   */\n      iszero\n      tag_123\n      jumpi\n        /* \"#utility.yul\":845:924   */\n      tag_124\n      tag_70\n      jump\t// in\n    tag_124:\n        /* \"#utility.yul\":807:926   */\n    tag_123:\n        /* \"#utility.yul\":965:966   */\n      0x00\n        /* \"#utility.yul\":990:1043   */\n      tag_125\n        /* \"#utility.yul\":1035:1042   */\n      dup5\n        /* \"#utility.yul\":1026:1032   */\n      dup3\n        /* \"#utility.yul\":1015:1024   */\n      dup6\n        /* \"#utility.yul\":1011:1033   */\n      add\n        /* \"#utility.yul\":990:1043   */\n      tag_74\n      jump\t// in\n    tag_125:\n        /* \"#utility.yul\":980:1043   */\n      swap2\n      pop\n        /* \"#utility.yul\":936:1053   */\n      pop\n        /* \"#utility.yul\":731:1060   */\n      swap3\n      swap2\n      pop\n      pop\n      jump\t// out\n        /* \"#utility.yul\":1066:1165   */\n    tag_75:\n        /* \"#utility.yul\":1118:1124   */\n      0x00\n        /* \"#utility.yul\":1152:1157   */\n      dup2\n        /* \"#utility.yul\":1146:1158   */\n      mload\n        /* \"#utility.yul\":1136:1158   */\n      swap1\n      pop\n        /* \"#utility.yul\":1066:1165   */\n      swap2\n      swap1\n      pop\n      jump\t// out\n        /* \"#utility.yul\":1171:1340   */\n    tag_76:\n        /* \"#utility.yul\":1255:1266   */\n      0x00\n        /* \"#utility.yul\":1289:1295   */\n      dup3\n        /* \"#utility.yul\":1284:1287   */\n      dup3\n        /* \"#utility.yul\":1277:1296   */\n      mstore\n        /* \"#utility.yul\":1329:1333   */\n      0x20\n        /* \"#utility.yul\":1324:1327   */\n      dup3\n        /* \"#utility.yul\":1320:1334   */\n      add\n        /* \"#utility.yul\":1305:1334   */\n      swap1\n      pop\n        /* \"#utility.yul\":1171:1340   */\n      swap3\n      swap2\n      pop\n      pop\n      jump\t// out\n        /* \"#utility.yul\":1346:1485   */\n    tag_77:\n        /* \"#utility.yul\":1435:1441   */\n      dup3\n        /* \"#utility.yul\":1430:1433   */\n      dup2\n        /* \"#utility.yul\":1425:1428   */\n      dup4\n        /* \"#utility.yul\":1419:1442   */\n      mcopy\n        /* \"#utility.yul\":1476:1477   */\n      0x00\n        /* \"#utility.yul\":1467:1473   */\n      dup4\n        /* \"#utility.yul\":1462:1465   */\n      dup4\n        /* \"#utility.yul\":1458:1474   */\n      add\n        /* \"#utility.yul\":1451:1478   */\n      mstore\n        /* \"#utility.yul\":1346:1485   */\n      pop\n      pop\n      pop\n      jump\t// out\n        /* \"#utility.yul\":1491:1593   */\n    tag_78:\n        /* \"#utility.yul\":1532:1538   */\n      0x00\n        /* \"#utility.yul\":1583:1585   */\n      0x1f\n        /* \"#utility.yul\":1579:1586   */\n      not\n        /* \"#utility.yul\":1574:1576   */\n      0x1f\n        /* \"#utility.yul\":1567:1572   */\n      dup4\n        /* \"#utility.yul\":1563:1577   */\n      add\n        /* \"#utility.yul\":1559:1587   */\n      and\n        /* \"#utility.yul\":1549:1587   */\n      swap1\n      pop\n        /* \"#utility.yul\":1491:1593   */\n      swap2\n      swap1\n      pop\n      jump\t// out\n        /* \"#utility.yul\":1599:1976   */\n    tag_79:\n        /* \"#utility.yul\":1687:1690   */\n      0x00\n        /* \"#utility.yul\":1715:1754   */\n      tag_131\n        /* \"#utility.yul\":1748:1753   */\n      dup3\n        /* \"#utility.yul\":1715:1754   */\n      tag_75\n      jump\t// in\n    tag_131:\n        /* \"#utility.yul\":1770:1841   */\n      tag_132\n        /* \"#utility.yul\":1834:1840   */\n      dup2\n        /* \"#utility.yul\":1829:1832   */\n      dup6\n        /* \"#utility.yul\":1770:1841   */\n      tag_76\n      jump\t// in\n    tag_132:\n        /* \"#utility.yul\":1763:1841   */\n      swap4\n      pop\n        /* \"#utility.yul\":1850:1915   */\n      tag_133\n        /* \"#utility.yul\":1908:1914   */\n      dup2\n        /* \"#utility.yul\":1903:1906   */\n      dup6\n        /* \"#utility.yul\":1896:1900   */\n      0x20\n        /* \"#utility.yul\":1889:1894   */\n      dup7\n        /* \"#utility.yul\":1885:1901   */\n      add\n        /* \"#utility.yul\":1850:1915   */\n      tag_77\n      jump\t// in\n    tag_133:\n        /* \"#utility.yul\":1940:1969   */\n      tag_134\n        /* \"#utility.yul\":1962:1968   */\n      dup2\n        /* \"#utility.yul\":1940:1969   */\n      tag_78\n      jump\t// in\n    tag_134:\n        /* \"#utility.yul\":1935:1938   */\n      dup5\n        /* \"#utility.yul\":1931:1970   */\n      add\n        /* \"#utility.yul\":1924:1970   */\n      swap2\n      pop\n        /* \"#utility.yul\":1691:1976   */\n      pop\n        /* \"#utility.yul\":1599:1976   */\n      swap3\n      swap2\n      pop\n      pop\n      jump\t// out\n        /* \"#utility.yul\":1982:2295   */\n    tag_16:\n        /* \"#utility.yul\":2095:2099   */\n      0x00\n        /* \"#utility.yul\":2133:2135   */\n      0x20\n        /* \"#utility.yul\":2122:2131   */\n      dup3\n        /* \"#utility.yul\":2118:2136   */\n      add\n        /* \"#utility.yul\":2110:2136   */\n      swap1\n      pop\n        /* \"#utility.yul\":2182:2191   */\n      dup2\n        /* \"#utility.yul\":2176:2180   */\n      dup2\n        /* \"#utility.yul\":2172:2192   */\n      sub\n        /* \"#utility.yul\":2168:2169   */\n      0x00\n        /* \"#utility.yul\":2157:2166   */\n      dup4\n        /* \"#utility.yul\":2153:2170   */\n      add\n        /* \"#utility.yul\":2146:2193   */\n      mstore\n        /* \"#utility.yul\":2210:2288   */\n      tag_136\n        /* \"#utility.yul\":2283:2287   */\n      dup2\n        /* \"#utility.yul\":2274:2280   */\n      dup5\n        /* \"#utility.yul\":2210:2288   */\n      tag_79\n      jump\t// in\n    tag_136:\n        /* \"#utility.yul\":2202:2288   */\n      swap1\n      pop\n        /* \"#utility.yul\":1982:2295   */\n      swap3\n      swap2\n      pop\n      pop\n      jump\t// out\n        /* \"#utility.yul\":2301:2427   */\n    tag_80:\n        /* \"#utility.yul\":2338:2345   */\n      0x00\n        /* \"#utility.yul\":2378:2420   */\n      0xffffffffffffffffffffffffffffffffffffffff\n        /* \"#utility.yul\":2371:2376   */\n      dup3\n        /* \"#utility.yul\":2367:2421   */\n      and\n        /* \"#utility.yul\":2356:2421   */\n      swap1\n      pop\n        /* \"#utility.yul\":2301:2427   */\n      swap2\n      swap1\n      pop\n      jump\t// out\n        /* \"#utility.yul\":2433:2529   */\n    tag_81:\n        /* \"#utility.yul\":2470:2477   */\n      0x00\n        /* \"#utility.yul\":2499:2523   */\n      tag_139\n        /* \"#utility.yul\":2517:2522   */\n      dup3\n        /* \"#utility.yul\":2499:2523   */\n      tag_80\n      jump\t// in\n    tag_139:\n        /* \"#utility.yul\":2488:2523   */\n      swap1\n      pop\n        /* \"#utility.yul\":2433:2529   */\n      swap2\n      swap1\n      pop\n      jump\t// out\n        /* \"#utility.yul\":2535:2653   */\n    tag_82:\n        /* \"#utility.yul\":2622:2646   */\n      tag_141\n        /* \"#utility.yul\":2640:2645   */\n      dup2\n        /* \"#utility.yul\":2622:2646   */\n      tag_81\n      jump\t// in\n    tag_141:\n        /* \"#utility.yul\":2617:2620   */\n      dup3\n        /* \"#utility.yul\":2610:2647   */\n      mstore\n        /* \"#utility.yul\":2535:2653   */\n      pop\n      pop\n      jump\t// out\n        /* \"#utility.yul\":2659:2881   */\n    tag_24:\n        /* \"#utility.yul\":2752:2756   */\n      0x00\n        /* \"#utility.yul\":2790:2792   */\n      0x20\n        /* \"#utility.yul\":2779:2788   */\n      dup3\n        /* \"#utility.yul\":2775:2793   */\n      add\n        /* \"#utility.yul\":2767:2793   */\n      swap1\n      pop\n        /* \"#utility.yul\":2803:2874   */\n      tag_143\n        /* \"#utility.yul\":2871:2872   */\n      0x00\n        /* \"#utility.yul\":2860:2869   */\n      dup4\n        /* \"#utility.yul\":2856:2873   */\n      add\n        /* \"#utility.yul\":2847:2853   */\n      dup5\n        /* \"#utility.yul\":2803:2874   */\n      tag_82\n      jump\t// in\n    tag_143:\n        /* \"#utility.yul\":2659:2881   */\n      swap3\n      swap2\n      pop\n      pop\n      jump\t// out\n        /* \"#utility.yul\":2887:3004   */\n    tag_83:\n        /* \"#utility.yul\":2996:2997   */\n      0x00\n        /* \"#utility.yul\":2993:2994   */\n      dup1\n        /* \"#utility.yul\":2986:2998   */\n      revert\n        /* \"#utility.yul\":3010:3127   */\n    tag_84:\n        /* \"#utility.yul\":3119:3120   */\n      0x00\n        /* \"#utility.yul\":3116:3117   */\n      dup1\n        /* \"#utility.yul\":3109:3121   */\n      revert\n        /* \"#utility.yul\":3133:3313   */\n    tag_85:\n        /* \"#utility.yul\":3181:3258   */\n      0x4e487b7100000000000000000000000000000000000000000000000000000000\n        /* \"#utility.yul\":3178:3179   */\n      0x00\n        /* \"#utility.yul\":3171:3259   */\n      mstore\n        /* \"#utility.yul\":3278:3282   */\n      0x41\n        /* \"#utility.yul\":3275:3276   */\n      0x04\n        /* \"#utility.yul\":3268:3283   */\n      mstore\n        /* \"#utility.yul\":3302:3306   */\n      0x24\n        /* \"#utility.yul\":3299:3300   */\n      0x00\n        /* \"#utility.yul\":3292:3307   */\n      revert\n        /* \"#utility.yul\":3319:3600   */\n    tag_86:\n        /* \"#utility.yul\":3402:3429   */\n      tag_148\n        /* \"#utility.yul\":3424:3428   */\n      dup3\n        /* \"#utility.yul\":3402:3429   */\n      tag_78\n      jump\t// in\n    tag_148:\n        /* \"#utility.yul\":3394:3400   */\n      dup2\n        /* \"#utility.yul\":3390:3430   */\n      add\n        /* \"#utility.yul\":3532:3538   */\n      dup2\n        /* \"#utility.yul\":3520:3530   */\n      dup2\n        /* \"#utility.yul\":3517:3539   */\n      lt\n        /* \"#utility.yul\":3496:3514   */\n      0xffffffffffffffff\n        /* \"#utility.yul\":3484:3494   */\n      dup3\n        /* \"#utility.yul\":3481:3515   */\n      gt\n        /* \"#utility.yul\":3478:3540   */\n      or\n        /* \"#utility.yul\":3475:3563   */\n      iszero\n      tag_149\n      jumpi\n        /* \"#utility.yul\":3543:3561   */\n      tag_150\n      tag_85\n      jump\t// in\n    tag_150:\n        /* \"#utility.yul\":3475:3563   */\n    tag_149:\n        /* \"#utility.yul\":3583:3593   */\n      dup1\n        /* \"#utility.yul\":3579:3581   */\n      0x40\n        /* \"#utility.yul\":3572:3594   */\n      mstore\n        /* \"#utility.yul\":3362:3600   */\n      pop\n        /* \"#utility.yul\":3319:3600   */\n      pop\n      pop\n      jump\t// out\n        /* \"#utility.yul\":3606:3735   */\n    tag_87:\n        /* \"#utility.yul\":3640:3646   */\n      0x00\n        /* \"#utility.yul\":3667:3687   */\n      tag_152\n      tag_69\n      jump\t// in\n    tag_152:\n        /* \"#utility.yul\":3657:3687   */\n      swap1\n      pop\n        /* \"#utility.yul\":3696:3729   */\n      tag_153\n        /* \"#utility.yul\":3724:3728   */\n      dup3\n        /* \"#utility.yul\":3716:3722   */\n      dup3\n        /* \"#utility.yul\":3696:3729   */\n      tag_86\n      jump\t// in\n    tag_153:\n        /* \"#utility.yul\":3606:3735   */\n      swap2\n      swap1\n      pop\n      jump\t// out\n        /* \"#utility.yul\":3741:4049   */\n    tag_88:\n        /* \"#utility.yul\":3803:3807   */\n      0x00\n        /* \"#utility.yul\":3893:3911   */\n      0xffffffffffffffff\n        /* \"#utility.yul\":3885:3891   */\n      dup3\n        /* \"#utility.yul\":3882:3912   */\n      gt\n        /* \"#utility.yul\":3879:3935   */\n      iszero\n      tag_155\n      jumpi\n        /* \"#utility.yul\":3915:3933   */\n      tag_156\n      tag_85\n      jump\t// in\n    tag_156:\n        /* \"#utility.yul\":3879:3935   */\n    tag_155:\n        /* \"#utility.yul\":3953:3982   */\n      tag_157\n        /* \"#utility.yul\":3975:3981   */\n      dup3\n        /* \"#utility.yul\":3953:3982   */\n      tag_78\n      jump\t// in\n    tag_157:\n        /* \"#utility.yul\":3945:3982   */\n      swap1\n      pop\n        /* \"#utility.yul\":4037:4041   */\n      0x20\n        /* \"#utility.yul\":4031:4035   */\n      dup2\n        /* \"#utility.yul\":4027:4042   */\n      add\n        /* \"#utility.yul\":4019:4042   */\n      swap1\n      pop\n        /* \"#utility.yul\":3741:4049   */\n      swap2\n      swap1\n      pop\n      jump\t// out\n        /* \"#utility.yul\":4055:4203   */\n    tag_89:\n        /* \"#utility.yul\":4153:4159   */\n      dup3\n        /* \"#utility.yul\":4148:4151   */\n      dup2\n        /* \"#utility.yul\":4143:4146   */\n      dup4\n        /* \"#utility.yul\":4130:4160   */\n      calldatacopy\n        /* \"#utility.yul\":4194:4195   */\n      0x00\n        /* \"#utility.yul\":4185:4191   */\n      dup4\n        /* \"#utility.yul\":4180:4183   */\n      dup4\n        /* \"#utility.yul\":4176:4192   */\n      add\n        /* \"#utility.yul\":4169:4196   */\n      mstore\n        /* \"#utility.yul\":4055:4203   */\n      pop\n      pop\n      pop\n      jump\t// out\n        /* \"#utility.yul\":4209:4634   */\n    tag_90:\n        /* \"#utility.yul\":4287:4292   */\n      0x00\n        /* \"#utility.yul\":4312:4378   */\n      tag_160\n        /* \"#utility.yul\":4328:4377   */\n      tag_161\n        /* \"#utility.yul\":4370:4376   */\n      dup5\n        /* \"#utility.yul\":4328:4377   */\n      tag_88\n      jump\t// in\n    tag_161:\n        /* \"#utility.yul\":4312:4378   */\n      tag_87\n      jump\t// in\n    tag_160:\n        /* \"#utility.yul\":4303:4378   */\n      swap1\n      pop\n        /* \"#utility.yul\":4401:4407   */\n      dup3\n        /* \"#utility.yul\":4394:4399   */\n      dup2\n        /* \"#utility.yul\":4387:4408   */\n      mstore\n        /* \"#utility.yul\":4439:4443   */\n      0x20\n        /* \"#utility.yul\":4432:4437   */\n      dup2\n        /* \"#utility.yul\":4428:4444   */\n      add\n        /* \"#utility.yul\":4477:4480   */\n      dup5\n        /* \"#utility.yul\":4468:4474   */\n      dup5\n        /* \"#utility.yul\":4463:4466   */\n      dup5\n        /* \"#utility.yul\":4459:4475   */\n      add\n        /* \"#utility.yul\":4456:4481   */\n      gt\n        /* \"#utility.yul\":4453:4565   */\n      iszero\n      tag_162\n      jumpi\n        /* \"#utility.yul\":4484:4563   */\n      tag_163\n      tag_84\n      jump\t// in\n    tag_163:\n        /* \"#utility.yul\":4453:4565   */\n    tag_162:\n        /* \"#utility.yul\":4574:4628   */\n      tag_164\n        /* \"#utility.yul\":4621:4627   */\n      dup5\n        /* \"#utility.yul\":4616:4619   */\n      dup3\n        /* \"#utility.yul\":4611:4614   */\n      dup6\n        /* \"#utility.yul\":4574:4628   */\n      tag_89\n      jump\t// in\n    tag_164:\n        /* \"#utility.yul\":4293:4634   */\n      pop\n        /* \"#utility.yul\":4209:4634   */\n      swap4\n      swap3\n      pop\n      pop\n      pop\n      jump\t// out\n        /* \"#utility.yul\":4654:4994   */\n    tag_91:\n        /* \"#utility.yul\":4710:4715   */\n      0x00\n        /* \"#utility.yul\":4759:4762   */\n      dup3\n        /* \"#utility.yul\":4752:4756   */\n      0x1f\n        /* \"#utility.yul\":4744:4750   */\n      dup4\n        /* \"#utility.yul\":4740:4757   */\n      add\n        /* \"#utility.yul\":4736:4763   */\n      slt\n        /* \"#utility.yul\":4726:4848   */\n      tag_166\n      jumpi\n        /* \"#utility.yul\":4767:4846   */\n      tag_167\n      tag_83\n      jump\t// in\n    tag_167:\n        /* \"#utility.yul\":4726:4848   */\n    tag_166:\n        /* \"#utility.yul\":4884:4890   */\n      dup2\n        /* \"#utility.yul\":4871:4891   */\n      calldataload\n        /* \"#utility.yul\":4909:4988   */\n      tag_168\n        /* \"#utility.yul\":4984:4987   */\n      dup5\n        /* \"#utility.yul\":4976:4982   */\n      dup3\n        /* \"#utility.yul\":4969:4973   */\n      0x20\n        /* \"#utility.yul\":4961:4967   */\n      dup7\n        /* \"#utility.yul\":4957:4974   */\n      add\n        /* \"#utility.yul\":4909:4988   */\n      tag_90\n      jump\t// in\n    tag_168:\n        /* \"#utility.yul\":4900:4988   */\n      swap2\n      pop\n        /* \"#utility.yul\":4716:4994   */\n      pop\n        /* \"#utility.yul\":4654:4994   */\n      swap3\n      swap2\n      pop\n      pop\n      jump\t// out\n        /* \"#utility.yul\":5000:5654   */\n    tag_27:\n        /* \"#utility.yul\":5078:5084   */\n      0x00\n        /* \"#utility.yul\":5086:5092   */\n      dup1\n        /* \"#utility.yul\":5135:5137   */\n      0x40\n        /* \"#utility.yul\":5123:5132   */\n      dup4\n        /* \"#utility.yul\":5114:5121   */\n      dup6\n        /* \"#utility.yul\":5110:5133   */\n      sub\n        /* \"#utility.yul\":5106:5138   */\n      slt\n        /* \"#utility.yul\":5103:5222   */\n      iszero\n      tag_170\n      jumpi\n        /* \"#utility.yul\":5141:5220   */\n      tag_171\n      tag_70\n      jump\t// in\n    tag_171:\n        /* \"#utility.yul\":5103:5222   */\n    tag_170:\n        /* \"#utility.yul\":5289:5290   */\n      0x00\n        /* \"#utility.yul\":5278:5287   */\n      dup4\n        /* \"#utility.yul\":5274:5291   */\n      add\n        /* \"#utility.yul\":5261:5292   */\n      calldataload\n        /* \"#utility.yul\":5319:5337   */\n      0xffffffffffffffff\n        /* \"#utility.yul\":5311:5317   */\n      dup2\n        /* \"#utility.yul\":5308:5338   */\n      gt\n        /* \"#utility.yul\":5305:5422   */\n      iszero\n      tag_172\n      jumpi\n        /* \"#utility.yul\":5341:5420   */\n      tag_173\n      tag_71\n      jump\t// in\n    tag_173:\n        /* \"#utility.yul\":5305:5422   */\n    tag_172:\n        /* \"#utility.yul\":5446:5509   */\n      tag_174\n        /* \"#utility.yul\":5501:5508   */\n      dup6\n        /* \"#utility.yul\":5492:5498   */\n      dup3\n        /* \"#utility.yul\":5481:5490   */\n      dup7\n        /* \"#utility.yul\":5477:5499   */\n      add\n        /* \"#utility.yul\":5446:5509   */\n      tag_91\n      jump\t// in\n    tag_174:\n        /* \"#utility.yul\":5436:5509   */\n      swap3\n      pop\n        /* \"#utility.yul\":5232:5519   */\n      pop\n        /* \"#utility.yul\":5558:5560   */\n      0x20\n        /* \"#utility.yul\":5584:5637   */\n      tag_175\n        /* \"#utility.yul\":5629:5636   */\n      dup6\n        /* \"#utility.yul\":5620:5626   */\n      dup3\n        /* \"#utility.yul\":5609:5618   */\n      dup7\n        /* \"#utility.yul\":5605:5627   */\n      add\n        /* \"#utility.yul\":5584:5637   */\n      tag_74\n      jump\t// in\n    tag_175:\n        /* \"#utility.yul\":5574:5637   */\n      swap2\n      pop\n        /* \"#utility.yul\":5529:5647   */\n      pop\n        /* \"#utility.yul\":5000:5654   */\n      swap3\n      pop\n      swap3\n      swap1\n      pop\n      jump\t// out\n        /* \"#utility.yul\":5660:5834   */\n    tag_92:\n        /* \"#utility.yul\":5800:5826   */\n      0x796f75206861766520746f20626520746865206f776e65720000000000000000\n        /* \"#utility.yul\":5796:5797   */\n      0x00\n        /* \"#utility.yul\":5788:5794   */\n      dup3\n        /* \"#utility.yul\":5784:5798   */\n      add\n        /* \"#utility.yul\":5777:5827   */\n      mstore\n        /* \"#utility.yul\":5660:5834   */\n      pop\n      jump\t// out\n        /* \"#utility.yul\":5840:6206   */\n    tag_93:\n        /* \"#utility.yul\":5982:5985   */\n      0x00\n        /* \"#utility.yul\":6003:6070   */\n      tag_178\n        /* \"#utility.yul\":6067:6069   */\n      0x18\n        /* \"#utility.yul\":6062:6065   */\n      dup4\n        /* \"#utility.yul\":6003:6070   */\n      tag_76\n      jump\t// in\n    tag_178:\n        /* \"#utility.yul\":5996:6070   */\n      swap2\n      pop\n        /* \"#utility.yul\":6079:6172   */\n      tag_179\n        /* \"#utility.yul\":6168:6171   */\n      dup3\n        /* \"#utility.yul\":6079:6172   */\n      tag_92\n      jump\t// in\n    tag_179:\n        /* \"#utility.yul\":6197:6199   */\n      0x20\n        /* \"#utility.yul\":6192:6195   */\n      dup3\n        /* \"#utility.yul\":6188:6200   */\n      add\n        /* \"#utility.yul\":6181:6200   */\n      swap1\n      pop\n        /* \"#utility.yul\":5840:6206   */\n      swap2\n      swap1\n      pop\n      jump\t// out\n        /* \"#utility.yul\":6212:6631   */\n    tag_32:\n        /* \"#utility.yul\":6378:6382   */\n      0x00\n        /* \"#utility.yul\":6416:6418   */\n      0x20\n        /* \"#utility.yul\":6405:6414   */\n      dup3\n        /* \"#utility.yul\":6401:6419   */\n      add\n        /* \"#utility.yul\":6393:6419   */\n      swap1\n      pop\n        /* \"#utility.yul\":6465:6474   */\n      dup2\n        /* \"#utility.yul\":6459:6463   */\n      dup2\n        /* \"#utility.yul\":6455:6475   */\n      sub\n        /* \"#utility.yul\":6451:6452   */\n      0x00\n        /* \"#utility.yul\":6440:6449   */\n      dup4\n        /* \"#utility.yul\":6436:6453   */\n      add\n        /* \"#utility.yul\":6429:6476   */\n      mstore\n        /* \"#utility.yul\":6493:6624   */\n      tag_181\n        /* \"#utility.yul\":6619:6623   */\n      dup2\n        /* \"#utility.yul\":6493:6624   */\n      tag_93\n      jump\t// in\n    tag_181:\n        /* \"#utility.yul\":6485:6624   */\n      swap1\n      pop\n        /* \"#utility.yul\":6212:6631   */\n      swap2\n      swap1\n      pop\n      jump\t// out\n        /* \"#utility.yul\":6637:6817   */\n    tag_94:\n        /* \"#utility.yul\":6685:6762   */\n      0x4e487b7100000000000000000000000000000000000000000000000000000000\n        /* \"#utility.yul\":6682:6683   */\n      0x00\n        /* \"#utility.yul\":6675:6763   */\n      mstore\n        /* \"#utility.yul\":6782:6786   */\n      0x22\n        /* \"#utility.yul\":6779:6780   */\n      0x04\n        /* \"#utility.yul\":6772:6787   */\n      mstore\n        /* \"#utility.yul\":6806:6810   */\n      0x24\n        /* \"#utility.yul\":6803:6804   */\n      0x00\n        /* \"#utility.yul\":6796:6811   */\n      revert\n        /* \"#utility.yul\":6823:7143   */\n    tag_41:\n        /* \"#utility.yul\":6867:6873   */\n      0x00\n        /* \"#utility.yul\":6904:6905   */\n      0x02\n        /* \"#utility.yul\":6898:6902   */\n      dup3\n        /* \"#utility.yul\":6894:6906   */\n      div\n        /* \"#utility.yul\":6884:6906   */\n      swap1\n      pop\n        /* \"#utility.yul\":6951:6952   */\n      0x01\n        /* \"#utility.yul\":6945:6949   */\n      dup3\n        /* \"#utility.yul\":6941:6953   */\n      and\n        /* \"#utility.yul\":6972:6990   */\n      dup1\n        /* \"#utility.yul\":6962:7043   */\n      tag_184\n      jumpi\n        /* \"#utility.yul\":7028:7032   */\n      0x7f\n        /* \"#utility.yul\":7020:7026   */\n      dup3\n        /* \"#utility.yul\":7016:7033   */\n      and\n        /* \"#utility.yul\":7006:7033   */\n      swap2\n      pop\n        /* \"#utility.yul\":6962:7043   */\n    tag_184:\n        /* \"#utility.yul\":7090:7092   */\n      0x20\n        /* \"#utility.yul\":7082:7088   */\n      dup3\n        /* \"#utility.yul\":7079:7093   */\n      lt\n        /* \"#utility.yul\":7059:7077   */\n      dup2\n        /* \"#utility.yul\":7056:7094   */\n      sub\n        /* \"#utility.yul\":7053:7137   */\n      tag_185\n      jumpi\n        /* \"#utility.yul\":7109:7127   */\n      tag_186\n      tag_94\n      jump\t// in\n    tag_186:\n        /* \"#utility.yul\":7053:7137   */\n    tag_185:\n        /* \"#utility.yul\":6874:7143   */\n      pop\n        /* \"#utility.yul\":6823:7143   */\n      swap2\n      swap1\n      pop\n      jump\t// out\n        /* \"#utility.yul\":7149:7290   */\n    tag_95:\n        /* \"#utility.yul\":7198:7202   */\n      0x00\n        /* \"#utility.yul\":7221:7224   */\n      dup2\n        /* \"#utility.yul\":7213:7224   */\n      swap1\n      pop\n        /* \"#utility.yul\":7244:7247   */\n      dup2\n        /* \"#utility.yul\":7241:7242   */\n      0x00\n        /* \"#utility.yul\":7234:7248   */\n      mstore\n        /* \"#utility.yul\":7278:7282   */\n      0x20\n        /* \"#utility.yul\":7275:7276   */\n      0x00\n        /* \"#utility.yul\":7265:7283   */\n      keccak256\n        /* \"#utility.yul\":7257:7283   */\n      swap1\n      pop\n        /* \"#utility.yul\":7149:7290   */\n      swap2\n      swap1\n      pop\n      jump\t// out\n        /* \"#utility.yul\":7296:7389   */\n    tag_96:\n        /* \"#utility.yul\":7333:7339   */\n      0x00\n        /* \"#utility.yul\":7380:7382   */\n      0x20\n        /* \"#utility.yul\":7375:7377   */\n      0x1f\n        /* \"#utility.yul\":7368:7373   */\n      dup4\n        /* \"#utility.yul\":7364:7378   */\n      add\n        /* \"#utility.yul\":7360:7383   */\n      div\n        /* \"#utility.yul\":7350:7383   */\n      swap1\n      pop\n        /* \"#utility.yul\":7296:7389   */\n      swap2\n      swap1\n      pop\n      jump\t// out\n        /* \"#utility.yul\":7395:7502   */\n    tag_97:\n        /* \"#utility.yul\":7439:7447   */\n      0x00\n        /* \"#utility.yul\":7489:7494   */\n      dup3\n        /* \"#utility.yul\":7483:7487   */\n      dup3\n        /* \"#utility.yul\":7479:7495   */\n      shl\n        /* \"#utility.yul\":7458:7495   */\n      swap1\n      pop\n        /* \"#utility.yul\":7395:7502   */\n      swap3\n      swap2\n      pop\n      pop\n      jump\t// out\n        /* \"#utility.yul\":7508:7901   */\n    tag_98:\n        /* \"#utility.yul\":7577:7583   */\n      0x00\n        /* \"#utility.yul\":7627:7628   */\n      0x08\n        /* \"#utility.yul\":7615:7625   */\n      dup4\n        /* \"#utility.yul\":7611:7629   */\n      mul\n        /* \"#utility.yul\":7650:7747   */\n      tag_191\n        /* \"#utility.yul\":7680:7746   */\n      0xffffffffffffffffffffffffffffffffffffffffffffffffffffffffffffffff\n        /* \"#utility.yul\":7669:7678   */\n      dup3\n        /* \"#utility.yul\":7650:7747   */\n      tag_97\n      jump\t// in\n    tag_191:\n        /* \"#utility.yul\":7768:7807   */\n      tag_192\n        /* \"#utility.yul\":7798:7806   */\n      dup7\n        /* \"#utility.yul\":7787:7796   */\n      dup4\n        /* \"#utility.yul\":7768:7807   */\n      tag_97\n      jump\t// in\n    tag_192:\n        /* \"#utility.yul\":7756:7807   */\n      swap6\n      pop\n        /* \"#utility.yul\":7840:7844   */\n      dup1\n        /* \"#utility.yul\":7836:7845   */\n      not\n        /* \"#utility.yul\":7829:7834   */\n      dup5\n        /* \"#utility.yul\":7825:7846   */\n      and\n        /* \"#utility.yul\":7816:7846   */\n      swap4\n      pop\n        /* \"#utility.yul\":7889:7893   */\n      dup1\n        /* \"#utility.yul\":7879:7887   */\n      dup7\n        /* \"#utility.yul\":7875:7894   */\n      and\n        /* \"#utility.yul\":7868:7873   */\n      dup5\n        /* \"#utility.yul\":7865:7895   */\n      or\n        /* \"#utility.yul\":7855:7895   */\n      swap3\n      pop\n        /* \"#utility.yul\":7584:7901   */\n      pop\n      pop\n        /* \"#utility.yul\":7508:7901   */\n      swap4\n      swap3\n      pop\n      pop\n      pop\n      jump\t// out\n        /* \"#utility.yul\":7907:7984   */\n    tag_99:\n        /* \"#utility.yul\":7944:7951   */\n      0x00\n        /* \"#utility.yul\":7973:7978   */\n      dup2\n        /* \"#utility.yul\":7962:7978   */\n      swap1\n      pop\n        /* \"#utility.yul\":7907:7984   */\n      swap2\n      swap1\n      pop\n      jump\t// out\n        /* \"#utility.yul\":7990:8050   */\n    tag_100:\n        /* \"#utility.yul\":8018:8021   */\n      0x00\n        /* \"#utility.yul\":8039:8044   */\n      dup2\n        /* \"#utility.yul\":8032:8044   */\n      swap1\n      pop\n        /* \"#utility.yul\":7990:8050   */\n      swap2\n      swap1\n      pop\n      jump\t// out\n        /* \"#utility.yul\":8056:8198   */\n    tag_101:\n        /* \"#utility.yul\":8106:8115   */\n      0x00\n        /* \"#utility.yul\":8139:8192   */\n      tag_196\n        /* \"#utility.yul\":8157:8191   */\n      tag_197\n        /* \"#utility.yul\":8166:8190   */\n      tag_198\n        /* \"#utility.yul\":8184:8189   */\n      dup5\n        /* \"#utility.yul\":8166:8190   */\n      tag_99\n      jump\t// in\n    tag_198:\n        /* \"#utility.yul\":8157:8191   */\n      tag_100\n      jump\t// in\n    tag_197:\n        /* \"#utility.yul\":8139:8192   */\n      tag_99\n      jump\t// in\n    tag_196:\n        /* \"#utility.yul\":8126:8192   */\n      swap1\n      pop\n        /* \"#utility.yul\":8056:8198   */\n      swap2\n      swap1\n      pop\n      jump\t// out\n        /* \"#utility.yul\":8204:8279   */\n    tag_102:\n        /* \"#utility.yul\":8247:8250   */\n      0x00\n        /* \"#utility.yul\":8268:8273   */\n      dup2\n        /* \"#utility.yul\":8261:8273   */\n      swap1\n      pop\n        /* \"#utility.yul\":8204:8279   */\n      swap2\n      swap1\n      pop\n      jump\t// out\n        /* \"#utility.yul\":8285:8554   */\n    tag_103:\n        /* \"#utility.yul\":8395:8434   */\n      tag_201\n        /* \"#utility.yul\":8426:8433   */\n      dup4\n        /* \"#utility.yul\":8395:8434   */\n      tag_101\n      jump\t// in\n    tag_201:\n        /* \"#utility.yul\":8456:8547   */\n      tag_202\n        /* \"#utility.yul\":8505:8546   */\n      tag_203\n        /* \"#utility.yul\":8529:8545   */\n      dup3\n        /* \"#utility.yul\":8505:8546   */\n      tag_102\n      jump\t// in\n    tag_203:\n        /* \"#utility.yul\":8497:8503   */\n      dup5\n        /* \"#utility.yul\":8490:8494   */\n      dup5\n        /* \"#utility.yul\":8484:8495   */\n      sload\n        /* \"#utility.yul\":8456:8547   */\n      tag_98\n      jump\t// in\n    tag_202:\n        /* \"#utility.yul\":8450:8454   */\n      dup3\n        /* \"#utility.yul\":8443:8548   */\n      sstore\n        /* \"#utility.yul\":8361:8554   */\n      pop\n        /* \"#utility.yul\":8285:8554   */\n      pop\n      pop\n      pop\n      jump\t// out\n        /* \"#utility.yul\":8560:8633   */\n    tag_104:\n        /* \"#utility.yul\":8605:8608   */\n      0x00\n        /* \"#utility.yul\":8560:8633   */\n      swap1\n      jump\t// out\n        /* \"#utility.yul\":8639:8828   */\n    tag_105:\n        /* \"#utility.yul\":8716:8748   */\n      tag_206\n      tag_104\n      jump\t// in\n    tag_206:\n        /* \"#utility.yul\":8757:8822   */\n      tag_207\n        /* \"#utility.yul\":8815:8821   */\n      dup2\n        /* \"#utility.yul\":8807:8813   */\n      dup5\n        /* \"#utility.yul\":8801:8805   */\n      dup5\n        /* \"#utility.yul\":8757:8822   */\n      tag_103\n      jump\t// in\n    tag_207:\n        /* \"#utility.yul\":8692:8828   */\n      pop\n        /* \"#utility.yul\":8639:8828   */\n      pop\n      pop\n      jump\t// out\n        /* \"#utility.yul\":8834:9020   */\n    tag_106:\n        /* \"#utility.yul\":8894:9014   */\n    tag_209:\n        /* \"#utility.yul\":8911:8914   */\n      dup2\n        /* \"#utility.yul\":8904:8909   */\n      dup2\n        /* \"#utility.yul\":8901:8915   */\n      lt\n        /* \"#utility.yul\":8894:9014   */\n      iszero\n      tag_211\n      jumpi\n        /* \"#utility.yul\":8965:9004   */\n      tag_212\n        /* \"#utility.yul\":9002:9003   */\n      0x00\n        /* \"#utility.yul\":8995:9000   */\n      dup3\n        /* \"#utility.yul\":8965:9004   */\n      tag_105\n      jump\t// in\n    tag_212:\n        /* \"#utility.yul\":8938:8939   */\n      0x01\n        /* \"#utility.yul\":8931:8936   */\n      dup2\n        /* \"#utility.yul\":8927:8940   */\n      add\n        /* \"#utility.yul\":8918:8940   */\n      swap1\n      pop\n        /* \"#utility.yul\":8894:9014   */\n      jump(tag_209)\n    tag_211:\n        /* \"#utility.yul\":8834:9020   */\n      pop\n      pop\n      jump\t// out\n        /* \"#utility.yul\":9026:9569   */\n    tag_107:\n        /* \"#utility.yul\":9127:9129   */\n      0x1f\n        /* \"#utility.yul\":9122:9125   */\n      dup3\n        /* \"#utility.yul\":9119:9130   */\n      gt\n        /* \"#utility.yul\":9116:9562   */\n      iszero\n      tag_214\n      jumpi\n        /* \"#utility.yul\":9161:9199   */\n      tag_215\n        /* \"#utility.yul\":9193:9198   */\n      dup2\n        /* \"#utility.yul\":9161:9199   */\n      tag_95\n      jump\t// in\n    tag_215:\n        /* \"#utility.yul\":9245:9274   */\n      tag_216\n        /* \"#utility.yul\":9263:9273   */\n      dup5\n        /* \"#utility.yul\":9245:9274   */\n      tag_96\n      jump\t// in\n    tag_216:\n        /* \"#utility.yul\":9235:9243   */\n      dup2\n        /* \"#utility.yul\":9231:9275   */\n      add\n        /* \"#utility.yul\":9428:9430   */\n      0x20\n        /* \"#utility.yul\":9416:9426   */\n      dup6\n        /* \"#utility.yul\":9413:9431   */\n      lt\n        /* \"#utility.yul\":9410:9459   */\n      iszero\n      tag_217\n      jumpi\n        /* \"#utility.yul\":9449:9457   */\n      dup2\n        /* \"#utility.yul\":9434:9457   */\n      swap1\n      pop\n        /* \"#utility.yul\":9410:9459   */\n    tag_217:\n        /* \"#utility.yul\":9472:9552   */\n      tag_218\n        /* \"#utility.yul\":9528:9550   */\n      tag_219\n        /* \"#utility.yul\":9546:9549   */\n      dup6\n        /* \"#utility.yul\":9528:9550   */\n      tag_96\n      jump\t// in\n    tag_219:\n        /* \"#utility.yul\":9518:9526   */\n      dup4\n        /* \"#utility.yul\":9514:9551   */\n      add\n        /* \"#utility.yul\":9501:9512   */\n      dup3\n        /* \"#utility.yul\":9472:9552   */\n      tag_106\n      jump\t// in\n    tag_218:\n        /* \"#utility.yul\":9131:9562   */\n      pop\n      pop\n        /* \"#utility.yul\":9116:9562   */\n    tag_214:\n        /* \"#utility.yul\":9026:9569   */\n      pop\n      pop\n      pop\n      jump\t// out\n        /* \"#utility.yul\":9575:9692   */\n    tag_108:\n        /* \"#utility.yul\":9629:9637   */\n      0x00\n        /* \"#utility.yul\":9679:9684   */\n      dup3\n        /* \"#utility.yul\":9673:9677   */\n      dup3\n        /* \"#utility.yul\":9669:9685   */\n      shr\n        /* \"#utility.yul\":9648:9685   */\n      swap1\n      pop\n        /* \"#utility.yul\":9575:9692   */\n      swap3\n      swap2\n      pop\n      pop\n      jump\t// out\n        /* \"#utility.yul\":9698:9867   */\n    tag_109:\n        /* \"#utility.yul\":9742:9748   */\n      0x00\n        /* \"#utility.yul\":9775:9826   */\n      tag_222\n        /* \"#utility.yul\":9823:9824   */\n      0x00\n        /* \"#utility.yul\":9819:9825   */\n      not\n        /* \"#utility.yul\":9811:9816   */\n      dup5\n        /* \"#utility.yul\":9808:9809   */\n      0x08\n        /* \"#utility.yul\":9804:9817   */\n      mul\n        /* \"#utility.yul\":9775:9826   */\n      tag_108\n      jump\t// in\n    tag_222:\n        /* \"#utility.yul\":9771:9827   */\n      not\n        /* \"#utility.yul\":9856:9860   */\n      dup1\n        /* \"#utility.yul\":9850:9854   */\n      dup4\n        /* \"#utility.yul\":9846:9861   */\n      and\n        /* \"#utility.yul\":9836:9861   */\n      swap2\n      pop\n        /* \"#utility.yul\":9749:9867   */\n      pop\n        /* \"#utility.yul\":9698:9867   */\n      swap3\n      swap2\n      pop\n      pop\n      jump\t// out\n        /* \"#utility.yul\":9872:10167   */\n    tag_110:\n        /* \"#utility.yul\":9948:9952   */\n      0x00\n        /* \"#utility.yul\":10094:10123   */\n      tag_224\n        /* \"#utility.yul\":10119:10122   */\n      dup4\n        /* \"#utility.yul\":10113:10117   */\n      dup4\n        /* \"#utility.yul\":10094:10123   */\n      tag_109\n      jump\t// in\n    tag_224:\n        /* \"#utility.yul\":10086:10123   */\n      swap2\n      pop\n        /* \"#utility.yul\":10156:10159   */\n      dup3\n        /* \"#utility.yul\":10153:10154   */\n      0x02\n        /* \"#utility.yul\":10149:10160   */\n      mul\n        /* \"#utility.yul\":10143:10147   */\n      dup3\n        /* \"#utility.yul\":10140:10161   */\n      or\n        /* \"#utility.yul\":10132:10161   */\n      swap1\n      pop\n        /* \"#utility.yul\":9872:10167   */\n      swap3\n      swap2\n      pop\n      pop\n      jump\t// out\n        /* \"#utility.yul\":10172:11567   */\n    tag_59:\n        /* \"#utility.yul\":10289:10326   */\n      tag_226\n        /* \"#utility.yul\":10322:10325   */\n      dup3\n        /* \"#utility.yul\":10289:10326   */\n      tag_75\n      jump\t// in\n    tag_226:\n        /* \"#utility.yul\":10391:10409   */\n      0xffffffffffffffff\n        /* \"#utility.yul\":10383:10389   */\n      dup2\n        /* \"#utility.yul\":10380:10410   */\n      gt\n        /* \"#utility.yul\":10377:10433   */\n      iszero\n      tag_227\n      jumpi\n        /* \"#utility.yul\":10413:10431   */\n      tag_228\n      tag_85\n      jump\t// in\n    tag_228:\n        /* \"#utility.yul\":10377:10433   */\n    tag_227:\n        /* \"#utility.yul\":10457:10495   */\n      tag_229\n        /* \"#utility.yul\":10489:10493   */\n      dup3\n        /* \"#utility.yul\":10483:10494   */\n      sload\n        /* \"#utility.yul\":10457:10495   */\n      tag_41\n      jump\t// in\n    tag_229:\n        /* \"#utility.yul\":10542:10609   */\n      tag_230\n        /* \"#utility.yul\":10602:10608   */\n      dup3\n        /* \"#utility.yul\":10594:10600   */\n      dup3\n        /* \"#utility.yul\":10588:10592   */\n      dup6\n        /* \"#utility.yul\":10542:10609   */\n      tag_107\n      jump\t// in\n    tag_230:\n        /* \"#utility.yul\":10636:10637   */\n      0x00\n        /* \"#utility.yul\":10660:10664   */\n      0x20\n        /* \"#utility.yul\":10647:10664   */\n      swap1\n      pop\n        /* \"#utility.yul\":10692:10694   */\n      0x1f\n        /* \"#utility.yul\":10684:10690   */\n      dup4\n        /* \"#utility.yul\":10681:10695   */\n      gt\n        /* \"#utility.yul\":10709:10710   */\n      0x01\n        /* \"#utility.yul\":10704:11322   */\n      dup2\n      eq\n      tag_232\n      jumpi\n        /* \"#utility.yul\":11366:11367   */\n      0x00\n        /* \"#utility.yul\":11383:11389   */\n      dup5\n        /* \"#utility.yul\":11380:11457   */\n      iszero\n      tag_233\n      jumpi\n        /* \"#utility.yul\":11432:11441   */\n      dup3\n        /* \"#utility.yul\":11427:11430   */\n      dup8\n        /* \"#utility.yul\":11423:11442   */\n      add\n        /* \"#utility.yul\":11417:11443   */\n      mload\n        /* \"#utility.yul\":11408:11443   */\n      swap1\n      pop\n        /* \"#utility.yul\":11380:11457   */\n    tag_233:\n        /* \"#utility.yul\":11483:11550   */\n      tag_234\n        /* \"#utility.yul\":11543:11549   */\n      dup6\n        /* \"#utility.yul\":11536:11541   */\n      dup3\n        /* \"#utility.yul\":11483:11550   */\n      tag_110\n      jump\t// in\n    tag_234:\n        /* \"#utility.yul\":11477:11481   */\n      dup7\n        /* \"#utility.yul\":11470:11551   */\n      sstore\n        /* \"#utility.yul\":11339:11561   */\n      pop\n        /* \"#utility.yul\":10674:11561   */\n      jump(tag_231)\n        /* \"#utility.yul\":10704:11322   */\n    tag_232:\n        /* \"#utility.yul\":10756:10760   */\n      0x1f\n        /* \"#utility.yul\":10752:10761   */\n      not\n        /* \"#utility.yul\":10744:10750   */\n      dup5\n        /* \"#utility.yul\":10740:10762   */\n      and\n        /* \"#utility.yul\":10790:10827   */\n      tag_235\n        /* \"#utility.yul\":10822:10826   */\n      dup7\n        /* \"#utility.yul\":10790:10827   */\n      tag_95\n      jump\t// in\n    tag_235:\n        /* \"#utility.yul\":10849:10850   */\n      0x00\n        /* \"#utility.yul\":10863:11071   */\n    tag_236:\n        /* \"#utility.yul\":10877:10884   */\n      dup3\n        /* \"#utility.yul\":10874:10875   */\n      dup2\n        /* \"#utility.yul\":10871:10885   */\n      lt\n        /* \"#utility.yul\":10863:11071   */\n      iszero\n      tag_238\n      jumpi\n        /* \"#utility.yul\":10956:10965   */\n      dup5\n        /* \"#utility.yul\":10951:10954   */\n      dup10\n        /* \"#utility.yul\":10947:10966   */\n      add\n        /* \"#utility.yul\":10941:10967   */\n      mload\n        /* \"#utility.yul\":10933:10939   */\n      dup3\n        /* \"#utility.yul\":10926:10968   */\n      sstore\n        /* \"#utility.yul\":11007:11008   */\n      0x01\n        /* \"#utility.yul\":10999:11005   */\n      dup3\n        /* \"#utility.yul\":10995:11009   */\n      add\n        /* \"#utility.yul\":10985:11009   */\n      swap2\n      pop\n        /* \"#utility.yul\":11054:11056   */\n      0x20\n        /* \"#utility.yul\":11043:11052   */\n      dup6\n        /* \"#utility.yul\":11039:11057   */\n      add\n        /* \"#utility.yul\":11026:11057   */\n      swap5\n      pop\n        /* \"#utility.yul\":10900:10904   */\n      0x20\n        /* \"#utility.yul\":10897:10898   */\n      dup2\n        /* \"#utility.yul\":10893:10905   */\n      add\n        /* \"#utility.yul\":10888:10905   */\n      swap1\n      pop\n        /* \"#utility.yul\":10863:11071   */\n      jump(tag_236)\n    tag_238:\n        /* \"#utility.yul\":11099:11105   */\n      dup7\n        /* \"#utility.yul\":11090:11097   */\n      dup4\n        /* \"#utility.yul\":11087:11106   */\n      lt\n        /* \"#utility.yul\":11084:11263   */\n      iszero\n      tag_239\n      jumpi\n        /* \"#utility.yul\":11157:11166   */\n      dup5\n        /* \"#utility.yul\":11152:11155   */\n      dup10\n        /* \"#utility.yul\":11148:11167   */\n      add\n        /* \"#utility.yul\":11142:11168   */\n      mload\n        /* \"#utility.yul\":11200:11248   */\n      tag_240\n        /* \"#utility.yul\":11242:11246   */\n      0x1f\n        /* \"#utility.yul\":11234:11240   */\n      dup10\n        /* \"#utility.yul\":11230:11247   */\n      and\n        /* \"#utility.yul\":11219:11228   */\n      dup3\n        /* \"#utility.yul\":11200:11248   */\n      tag_109\n      jump\t// in\n    tag_240:\n        /* \"#utility.yul\":11192:11198   */\n      dup4\n        /* \"#utility.yul\":11185:11249   */\n      sstore\n        /* \"#utility.yul\":11107:11263   */\n      pop\n        /* \"#utility.yul\":11084:11263   */\n    tag_239:\n        /* \"#utility.yul\":11309:11310   */\n      0x01\n        /* \"#utility.yul\":11305:11306   */\n      0x02\n        /* \"#utility.yul\":11297:11303   */\n      dup9\n        /* \"#utility.yul\":11293:11307   */\n      mul\n        /* \"#utility.yul\":11289:11311   */\n      add\n        /* \"#utility.yul\":11283:11287   */\n      dup9\n        /* \"#utility.yul\":11276:11312   */\n      sstore\n        /* \"#utility.yul\":10711:11322   */\n      pop\n      pop\n      pop\n        /* \"#utility.yul\":10674:11561   */\n    tag_231:\n      pop\n        /* \"#utility.yul\":10264:11567   */\n      pop\n      pop\n      pop\n        /* \"#utility.yul\":10172:11567   */\n      pop\n      pop\n      jump\t// out\n        /* \"#utility.yul\":11573:11691   */\n    tag_111:\n        /* \"#utility.yul\":11660:11684   */\n      tag_242\n        /* \"#utility.yul\":11678:11683   */\n      dup2\n        /* \"#utility.yul\":11660:11684   */\n      tag_99\n      jump\t// in\n    tag_242:\n        /* \"#utility.yul\":11655:11658   */\n      dup3\n        /* \"#utility.yul\":11648:11685   */\n      mstore\n        /* \"#utility.yul\":11573:11691   */\n      pop\n      pop\n      jump\t// out\n        /* \"#utility.yul\":11697:12120   */\n    tag_61:\n        /* \"#utility.yul\":11838:11842   */\n      0x00\n        /* \"#utility.yul\":11876:11878   */\n      0x40\n        /* \"#utility.yul\":11865:11874   */\n      dup3\n        /* \"#utility.yul\":11861:11879   */\n      add\n        /* \"#utility.yul\":11853:11879   */\n      swap1\n      pop\n        /* \"#utility.yul\":11925:11934   */\n      dup2\n        /* \"#utility.yul\":11919:11923   */\n      dup2\n        /* \"#utility.yul\":11915:11935   */\n      sub\n        /* \"#utility.yul\":11911:11912   */\n      0x00\n        /* \"#utility.yul\":11900:11909   */\n      dup4\n        /* \"#utility.yul\":11896:11913   */\n      add\n        /* \"#utility.yul\":11889:11936   */\n      mstore\n        /* \"#utility.yul\":11953:12031   */\n      tag_244\n        /* \"#utility.yul\":12026:12030   */\n      dup2\n        /* \"#utility.yul\":12017:12023   */\n      dup6\n        /* \"#utility.yul\":11953:12031   */\n      tag_79\n      jump\t// in\n    tag_244:\n        /* \"#utility.yul\":11945:12031   */\n      swap1\n      pop\n        /* \"#utility.yul\":12041:12113   */\n      tag_245\n        /* \"#utility.yul\":12109:12111   */\n      0x20\n        /* \"#utility.yul\":12098:12107   */\n      dup4\n        /* \"#utility.yul\":12094:12112   */\n      add\n        /* \"#utility.yul\":12085:12091   */\n      dup5\n        /* \"#utility.yul\":12041:12113   */\n      tag_111\n      jump\t// in\n    tag_245:\n        /* \"#utility.yul\":11697:12120   */\n      swap4\n      swap3\n      pop\n      pop\n      pop\n      jump\t// out\n\n    auxdata: 0xa26469706673582212203bdf7ebc0606b09fc4b324730780840fbde16eedacad3e3426d847bf2736d97c64736f6c634300081a0033\n}\n",
				"bytecode": {
					"linkReferences": {},
					"object": "6080604052348015600e575f80fd5b50335f806101000a81548173ffffffffffffffffffffffffffffffffffffffff021916908373ffffffffffffffffffffffffffffffffffffffff160217905550610c558061005b5f395ff3fe608060405234801561000f575f80fd5b5060043610610054575f3560e01c80625b8a0f146100585780632b64d44114610074578063411bc8c2146100a45780638da5cb5b146100d4578063997db5ce146100f2575b5f80fd5b610072600480360381019061006d919061060f565b61010e565b005b61008e6004803603810190610089919061060f565b61024c565b60405161009b91906106aa565b60405180910390f35b6100be60048036038101906100b9919061060f565b610311565b6040516100cb91906106aa565b60405180910390f35b6100dc6103ac565b6040516100e99190610709565b60405180910390f35b61010c6004803603810190610107919061084e565b6103cf565b005b5f8054906101000a900473ffffffffffffffffffffffffffffffffffffffff1673ffffffffffffffffffffffffffffffffffffffff163373ffffffffffffffffffffffffffffffffffffffff161461019b576040517f08c379a0000000000000000000000000000000000000000000000000000000008152600401610192906108f2565b60405180910390fd5b5f73ffffffffffffffffffffffffffffffffffffffff163373ffffffffffffffffffffffffffffffffffffffff1603610209576040517f08c379a0000000000000000000000000000000000000000000000000000000008152600401610200906108f2565b60405180910390fd5b60015f826fffffffffffffffffffffffffffffffff166fffffffffffffffffffffffffffffffff1681526020019081526020015f205f6102499190610561565b50565b606060015f836fffffffffffffffffffffffffffffffff166fffffffffffffffffffffffffffffffff1681526020019081526020015f20805461028e9061093d565b80601f01602080910402602001604051908101604052809291908181526020018280546102ba9061093d565b80156103055780601f106102dc57610100808354040283529160200191610305565b820191905f5260205f20905b8154815290600101906020018083116102e857829003601f168201915b50505050509050919050565b6001602052805f5260405f205f91509050805461032d9061093d565b80601f01602080910402602001604051908101604052809291908181526020018280546103599061093d565b80156103a45780601f1061037b576101008083540402835291602001916103a4565b820191905f5260205f20905b81548152906001019060200180831161038757829003601f168201915b505050505081565b5f8054906101000a900473ffffffffffffffffffffffffffffffffffffffff1681565b5f8054906101000a900473ffffffffffffffffffffffffffffffffffffffff1673ffffffffffffffffffffffffffffffffffffffff163373ffffffffffffffffffffffffffffffffffffffff161461045c576040517f08c379a0000000000000000000000000000000000000000000000000000000008152600401610453906108f2565b60405180910390fd5b5f73ffffffffffffffffffffffffffffffffffffffff163373ffffffffffffffffffffffffffffffffffffffff16036104ca576040517f08c379a00000000000000000000000000000000000000000000000000000000081526004016104c1906108f2565b60405180910390fd5b8160015f836fffffffffffffffffffffffffffffffff166fffffffffffffffffffffffffffffffff1681526020019081526020015f20908161050c9190610b13565b503373ffffffffffffffffffffffffffffffffffffffff167f329d359cf9f4051167ad17cee4f7c13e33128369772783e288c19fcdd1384fed8342604051610555929190610bf1565b60405180910390a25050565b50805461056d9061093d565b5f825580601f1061057e575061059b565b601f0160209004905f5260205f209081019061059a919061059e565b5b50565b5b808211156105b5575f815f90555060010161059f565b5090565b5f604051905090565b5f80fd5b5f80fd5b5f6fffffffffffffffffffffffffffffffff82169050919050565b6105ee816105ca565b81146105f8575f80fd5b50565b5f81359050610609816105e5565b92915050565b5f60208284031215610624576106236105c2565b5b5f610631848285016105fb565b91505092915050565b5f81519050919050565b5f82825260208201905092915050565b8281835e5f83830152505050565b5f601f19601f8301169050919050565b5f61067c8261063a565b6106868185610644565b9350610696818560208601610654565b61069f81610662565b840191505092915050565b5f6020820190508181035f8301526106c28184610672565b905092915050565b5f73ffffffffffffffffffffffffffffffffffffffff82169050919050565b5f6106f3826106ca565b9050919050565b610703816106e9565b82525050565b5f60208201905061071c5f8301846106fa565b92915050565b5f80fd5b5f80fd5b7f4e487b71000000000000000000000000000000000000000000000000000000005f52604160045260245ffd5b61076082610662565b810181811067ffffffffffffffff8211171561077f5761077e61072a565b5b80604052505050565b5f6107916105b9565b905061079d8282610757565b919050565b5f67ffffffffffffffff8211156107bc576107bb61072a565b5b6107c582610662565b9050602081019050919050565b828183375f83830152505050565b5f6107f26107ed846107a2565b610788565b90508281526020810184848401111561080e5761080d610726565b5b6108198482856107d2565b509392505050565b5f82601f83011261083557610834610722565b5b81356108458482602086016107e0565b91505092915050565b5f8060408385031215610864576108636105c2565b5b5f83013567ffffffffffffffff811115610881576108806105c6565b5b61088d85828601610821565b925050602061089e858286016105fb565b9150509250929050565b7f796f75206861766520746f20626520746865206f776e657200000000000000005f82015250565b5f6108dc601883610644565b91506108e7826108a8565b602082019050919050565b5f6020820190508181035f830152610909816108d0565b9050919050565b7f4e487b71000000000000000000000000000000000000000000000000000000005f52602260045260245ffd5b5f600282049050600182168061095457607f821691505b60208210810361096757610966610910565b5b50919050565b5f819050815f5260205f209050919050565b5f6020601f8301049050919050565b5f82821b905092915050565b5f600883026109c97fffffffffffffffffffffffffffffffffffffffffffffffffffffffffffffffff8261098e565b6109d3868361098e565b95508019841693508086168417925050509392505050565b5f819050919050565b5f819050919050565b5f610a17610a12610a0d846109eb565b6109f4565b6109eb565b9050919050565b5f819050919050565b610a30836109fd565b610a44610a3c82610a1e565b84845461099a565b825550505050565b5f90565b610a58610a4c565b610a63818484610a27565b505050565b5b81811015610a8657610a7b5f82610a50565b600181019050610a69565b5050565b601f821115610acb57610a9c8161096d565b610aa58461097f565b81016020851015610ab4578190505b610ac8610ac08561097f565b830182610a68565b50505b505050565b5f82821c905092915050565b5f610aeb5f1984600802610ad0565b1980831691505092915050565b5f610b038383610adc565b9150826002028217905092915050565b610b1c8261063a565b67ffffffffffffffff811115610b3557610b3461072a565b5b610b3f825461093d565b610b4a828285610a8a565b5f60209050601f831160018114610b7b575f8415610b69578287015190505b610b738582610af8565b865550610bda565b601f198416610b898661096d565b5f5b82811015610bb057848901518255600182019150602085019450602081019050610b8b565b86831015610bcd5784890151610bc9601f891682610adc565b8355505b6001600288020188555050505b505050505050565b610beb816109eb565b82525050565b5f6040820190508181035f830152610c098185610672565b9050610c186020830184610be2565b939250505056fea26469706673582212203bdf7ebc0606b09fc4b324730780840fbde16eedacad3e3426d847bf2736d97c64736f6c634300081a0033",
					"opcodes": "PUSH1 0x80 PUSH1 0x40 MSTORE CALLVALUE DUP1 ISZERO PUSH1 0xE JUMPI PUSH0 DUP1 REVERT JUMPDEST POP CALLER PUSH0 DUP1 PUSH2 0x100 EXP DUP2 SLOAD DUP2 PUSH20 0xFFFFFFFFFFFFFFFFFFFFFFFFFFFFFFFFFFFFFFFF MUL NOT AND SWAP1 DUP4 PUSH20 0xFFFFFFFFFFFFFFFFFFFFFFFFFFFFFFFFFFFFFFFF AND MUL OR SWAP1 SSTORE POP PUSH2 0xC55 DUP1 PUSH2 0x5B PUSH0 CODECOPY PUSH0 RETURN INVALID PUSH1 0x80 PUSH1 0x40 MSTORE CALLVALUE DUP1 ISZERO PUSH2 0xF JUMPI PUSH0 DUP1 REVERT JUMPDEST POP PUSH1 0x4 CALLDATASIZE LT PUSH2 0x54 JUMPI PUSH0 CALLDATALOAD PUSH1 0xE0 SHR DUP1 PUSH3 0x5B8A0F EQ PUSH2 0x58 JUMPI DUP1 PUSH4 0x2B64D441 EQ PUSH2 0x74 JUMPI DUP1 PUSH4 0x411BC8C2 EQ PUSH2 0xA4 JUMPI DUP1 PUSH4 0x8DA5CB5B EQ PUSH2 0xD4 JUMPI DUP1 PUSH4 0x997DB5CE EQ PUSH2 0xF2 JUMPI JUMPDEST PUSH0 DUP1 REVERT JUMPDEST PUSH2 0x72 PUSH1 0x4 DUP1 CALLDATASIZE SUB DUP2 ADD SWAP1 PUSH2 0x6D SWAP2 SWAP1 PUSH2 0x60F JUMP JUMPDEST PUSH2 0x10E JUMP JUMPDEST STOP JUMPDEST PUSH2 0x8E PUSH1 0x4 DUP1 CALLDATASIZE SUB DUP2 ADD SWAP1 PUSH2 0x89 SWAP2 SWAP1 PUSH2 0x60F JUMP JUMPDEST PUSH2 0x24C JUMP JUMPDEST PUSH1 0x40 MLOAD PUSH2 0x9B SWAP2 SWAP1 PUSH2 0x6AA JUMP JUMPDEST PUSH1 0x40 MLOAD DUP1 SWAP2 SUB SWAP1 RETURN JUMPDEST PUSH2 0xBE PUSH1 0x4 DUP1 CALLDATASIZE SUB DUP2 ADD SWAP1 PUSH2 0xB9 SWAP2 SWAP1 PUSH2 0x60F JUMP JUMPDEST PUSH2 0x311 JUMP JUMPDEST PUSH1 0x40 MLOAD PUSH2 0xCB SWAP2 SWAP1 PUSH2 0x6AA JUMP JUMPDEST PUSH1 0x40 MLOAD DUP1 SWAP2 SUB SWAP1 RETURN JUMPDEST PUSH2 0xDC PUSH2 0x3AC JUMP JUMPDEST PUSH1 0x40 MLOAD PUSH2 0xE9 SWAP2 SWAP1 PUSH2 0x709 JUMP JUMPDEST PUSH1 0x40 MLOAD DUP1 SWAP2 SUB SWAP1 RETURN JUMPDEST PUSH2 0x10C PUSH1 0x4 DUP1 CALLDATASIZE SUB DUP2 ADD SWAP1 PUSH2 0x107 SWAP2 SWAP1 PUSH2 0x84E JUMP JUMPDEST PUSH2 0x3CF JUMP JUMPDEST STOP JUMPDEST PUSH0 DUP1 SLOAD SWAP1 PUSH2 0x100 EXP SWAP1 DIV PUSH20 0xFFFFFFFFFFFFFFFFFFFFFFFFFFFFFFFFFFFFFFFF AND PUSH20 0xFFFFFFFFFFFFFFFFFFFFFFFFFFFFFFFFFFFFFFFF AND CALLER PUSH20 0xFFFFFFFFFFFFFFFFFFFFFFFFFFFFFFFFFFFFFFFF AND EQ PUSH2 0x19B JUMPI PUSH1 0x40 MLOAD PUSH32 0x8C379A000000000000000000000000000000000000000000000000000000000 DUP2 MSTORE PUSH1 0x4 ADD PUSH2 0x192 SWAP1 PUSH2 0x8F2 JUMP JUMPDEST PUSH1 0x40 MLOAD DUP1 SWAP2 SUB SWAP1 REVERT JUMPDEST PUSH0 PUSH20 0xFFFFFFFFFFFFFFFFFFFFFFFFFFFFFFFFFFFFFFFF AND CALLER PUSH20 0xFFFFFFFFFFFFFFFFFFFFFFFFFFFFFFFFFFFFFFFF AND SUB PUSH2 0x209 JUMPI PUSH1 0x40 MLOAD PUSH32 0x8C379A000000000000000000000000000000000000000000000000000000000 DUP2 MSTORE PUSH1 0x4 ADD PUSH2 0x200 SWAP1 PUSH2 0x8F2 JUMP JUMPDEST PUSH1 0x40 MLOAD DUP1 SWAP2 SUB SWAP1 REVERT JUMPDEST PUSH1 0x1 PUSH0 DUP3 PUSH16 0xFFFFFFFFFFFFFFFFFFFFFFFFFFFFFFFF AND PUSH16 0xFFFFFFFFFFFFFFFFFFFFFFFFFFFFFFFF AND DUP2 MSTORE PUSH1 0x20 ADD SWAP1 DUP2 MSTORE PUSH1 0x20 ADD PUSH0 KECCAK256 PUSH0 PUSH2 0x249 SWAP2 SWAP1 PUSH2 0x561 JUMP JUMPDEST POP JUMP JUMPDEST PUSH1 0x60 PUSH1 0x1 PUSH0 DUP4 PUSH16 0xFFFFFFFFFFFFFFFFFFFFFFFFFFFFFFFF AND PUSH16 0xFFFFFFFFFFFFFFFFFFFFFFFFFFFFFFFF AND DUP2 MSTORE PUSH1 0x20 ADD SWAP1 DUP2 MSTORE PUSH1 0x20 ADD PUSH0 KECCAK256 DUP1 SLOAD PUSH2 0x28E SWAP1 PUSH2 0x93D JUMP JUMPDEST DUP1 PUSH1 0x1F ADD PUSH1 0x20 DUP1 SWAP2 DIV MUL PUSH1 0x20 ADD PUSH1 0x40 MLOAD SWAP1 DUP2 ADD PUSH1 0x40 MSTORE DUP1 SWAP3 SWAP2 SWAP1 DUP2 DUP2 MSTORE PUSH1 0x20 ADD DUP3 DUP1 SLOAD PUSH2 0x2BA SWAP1 PUSH2 0x93D JUMP JUMPDEST DUP1 ISZERO PUSH2 0x305 JUMPI DUP1 PUSH1 0x1F LT PUSH2 0x2DC JUMPI PUSH2 0x100 DUP1 DUP4 SLOAD DIV MUL DUP4 MSTORE SWAP2 PUSH1 0x20 ADD SWAP2 PUSH2 0x305 JUMP JUMPDEST DUP3 ADD SWAP2 SWAP1 PUSH0 MSTORE PUSH1 0x20 PUSH0 KECCAK256 SWAP1 JUMPDEST DUP2 SLOAD DUP2 MSTORE SWAP1 PUSH1 0x1 ADD SWAP1 PUSH1 0x20 ADD DUP1 DUP4 GT PUSH2 0x2E8 JUMPI DUP3 SWAP1 SUB PUSH1 0x1F AND DUP3 ADD SWAP2 JUMPDEST POP POP POP POP POP SWAP1 POP SWAP2 SWAP1 POP JUMP JUMPDEST PUSH1 0x1 PUSH1 0x20 MSTORE DUP1 PUSH0 MSTORE PUSH1 0x40 PUSH0 KECCAK256 PUSH0 SWAP2 POP SWAP1 POP DUP1 SLOAD PUSH2 0x32D SWAP1 PUSH2 0x93D JUMP JUMPDEST DUP1 PUSH1 0x1F ADD PUSH1 0x20 DUP1 SWAP2 DIV MUL PUSH1 0x20 ADD PUSH1 0x40 MLOAD SWAP1 DUP2 ADD PUSH1 0x40 MSTORE DUP1 SWAP3 SWAP2 SWAP1 DUP2 DUP2 MSTORE PUSH1 0x20 ADD DUP3 DUP1 SLOAD PUSH2 0x359 SWAP1 PUSH2 0x93D JUMP JUMPDEST DUP1 ISZERO PUSH2 0x3A4 JUMPI DUP1 PUSH1 0x1F LT PUSH2 0x37B JUMPI PUSH2 0x100 DUP1 DUP4 SLOAD DIV MUL DUP4 MSTORE SWAP2 PUSH1 0x20 ADD SWAP2 PUSH2 0x3A4 JUMP JUMPDEST DUP3 ADD SWAP2 SWAP1 PUSH0 MSTORE PUSH1 0x20 PUSH0 KECCAK256 SWAP1 JUMPDEST DUP2 SLOAD DUP2 MSTORE SWAP1 PUSH1 0x1 ADD SWAP1 PUSH1 0x20 ADD DUP1 DUP4 GT PUSH2 0x387 JUMPI DUP3 SWAP1 SUB PUSH1 0x1F AND DUP3 ADD SWAP2 JUMPDEST POP POP POP POP POP DUP2 JUMP JUMPDEST PUSH0 DUP1 SLOAD SWAP1 PUSH2 0x100 EXP SWAP1 DIV PUSH20 0xFFFFFFFFFFFFFFFFFFFFFFFFFFFFFFFFFFFFFFFF AND DUP2 JUMP JUMPDEST PUSH0 DUP1 SLOAD SWAP1 PUSH2 0x100 EXP SWAP1 DIV PUSH20 0xFFFFFFFFFFFFFFFFFFFFFFFFFFFFFFFFFFFFFFFF AND PUSH20 0xFFFFFFFFFFFFFFFFFFFFFFFFFFFFFFFFFFFFFFFF AND CALLER PUSH20 0xFFFFFFFFFFFFFFFFFFFFFFFFFFFFFFFFFFFFFFFF AND EQ PUSH2 0x45C JUMPI PUSH1 0x40 MLOAD PUSH32 0x8C379A000000000000000000000000000000000000000000000000000000000 DUP2 MSTORE PUSH1 0x4 ADD PUSH2 0x453 SWAP1 PUSH2 0x8F2 JUMP JUMPDEST PUSH1 0x40 MLOAD DUP1 SWAP2 SUB SWAP1 REVERT JUMPDEST PUSH0 PUSH20 0xFFFFFFFFFFFFFFFFFFFFFFFFFFFFFFFFFFFFFFFF AND CALLER PUSH20 0xFFFFFFFFFFFFFFFFFFFFFFFFFFFFFFFFFFFFFFFF AND SUB PUSH2 0x4CA JUMPI PUSH1 0x40 MLOAD PUSH32 0x8C379A000000000000000000000000000000000000000000000000000000000 DUP2 MSTORE PUSH1 0x4 ADD PUSH2 0x4C1 SWAP1 PUSH2 0x8F2 JUMP JUMPDEST PUSH1 0x40 MLOAD DUP1 SWAP2 SUB SWAP1 REVERT JUMPDEST DUP2 PUSH1 0x1 PUSH0 DUP4 PUSH16 0xFFFFFFFFFFFFFFFFFFFFFFFFFFFFFFFF AND PUSH16 0xFFFFFFFFFFFFFFFFFFFFFFFFFFFFFFFF AND DUP2 MSTORE PUSH1 0x20 ADD SWAP1 DUP2 MSTORE PUSH1 0x20 ADD PUSH0 KECCAK256 SWAP1 DUP2 PUSH2 0x50C SWAP2 SWAP1 PUSH2 0xB13 JUMP JUMPDEST POP CALLER PUSH20 0xFFFFFFFFFFFFFFFFFFFFFFFFFFFFFFFFFFFFFFFF AND PUSH32 0x329D359CF9F4051167AD17CEE4F7C13E33128369772783E288C19FCDD1384FED DUP4 TIMESTAMP PUSH1 0x40 MLOAD PUSH2 0x555 SWAP3 SWAP2 SWAP1 PUSH2 0xBF1 JUMP JUMPDEST PUSH1 0x40 MLOAD DUP1 SWAP2 SUB SWAP1 LOG2 POP POP JUMP JUMPDEST POP DUP1 SLOAD PUSH2 0x56D SWAP1 PUSH2 0x93D JUMP JUMPDEST PUSH0 DUP3 SSTORE DUP1 PUSH1 0x1F LT PUSH2 0x57E JUMPI POP PUSH2 0x59B JUMP JUMPDEST PUSH1 0x1F ADD PUSH1 0x20 SWAP1 DIV SWAP1 PUSH0 MSTORE PUSH1 0x20 PUSH0 KECCAK256 SWAP1 DUP2 ADD SWAP1 PUSH2 0x59A SWAP2 SWAP1 PUSH2 0x59E JUMP JUMPDEST JUMPDEST POP JUMP JUMPDEST JUMPDEST DUP1 DUP3 GT ISZERO PUSH2 0x5B5 JUMPI PUSH0 DUP2 PUSH0 SWAP1 SSTORE POP PUSH1 0x1 ADD PUSH2 0x59F JUMP JUMPDEST POP SWAP1 JUMP JUMPDEST PUSH0 PUSH1 0x40 MLOAD SWAP1 POP SWAP1 JUMP JUMPDEST PUSH0 DUP1 REVERT JUMPDEST PUSH0 DUP1 REVERT JUMPDEST PUSH0 PUSH16 0xFFFFFFFFFFFFFFFFFFFFFFFFFFFFFFFF DUP3 AND SWAP1 POP SWAP2 SWAP1 POP JUMP JUMPDEST PUSH2 0x5EE DUP2 PUSH2 0x5CA JUMP JUMPDEST DUP2 EQ PUSH2 0x5F8 JUMPI PUSH0 DUP1 REVERT JUMPDEST POP JUMP JUMPDEST PUSH0 DUP2 CALLDATALOAD SWAP1 POP PUSH2 0x609 DUP2 PUSH2 0x5E5 JUMP JUMPDEST SWAP3 SWAP2 POP POP JUMP JUMPDEST PUSH0 PUSH1 0x20 DUP3 DUP5 SUB SLT ISZERO PUSH2 0x624 JUMPI PUSH2 0x623 PUSH2 0x5C2 JUMP JUMPDEST JUMPDEST PUSH0 PUSH2 0x631 DUP5 DUP3 DUP6 ADD PUSH2 0x5FB JUMP JUMPDEST SWAP2 POP POP SWAP3 SWAP2 POP POP JUMP JUMPDEST PUSH0 DUP2 MLOAD SWAP1 POP SWAP2 SWAP1 POP JUMP JUMPDEST PUSH0 DUP3 DUP3 MSTORE PUSH1 0x20 DUP3 ADD SWAP1 POP SWAP3 SWAP2 POP POP JUMP JUMPDEST DUP3 DUP2 DUP4 MCOPY PUSH0 DUP4 DUP4 ADD MSTORE POP POP POP JUMP JUMPDEST PUSH0 PUSH1 0x1F NOT PUSH1 0x1F DUP4 ADD AND SWAP1 POP SWAP2 SWAP1 POP JUMP JUMPDEST PUSH0 PUSH2 0x67C DUP3 PUSH2 0x63A JUMP JUMPDEST PUSH2 0x686 DUP2 DUP6 PUSH2 0x644 JUMP JUMPDEST SWAP4 POP PUSH2 0x696 DUP2 DUP6 PUSH1 0x20 DUP7 ADD PUSH2 0x654 JUMP JUMPDEST PUSH2 0x69F DUP2 PUSH2 0x662 JUMP JUMPDEST DUP5 ADD SWAP2 POP POP SWAP3 SWAP2 POP POP JUMP JUMPDEST PUSH0 PUSH1 0x20 DUP3 ADD SWAP1 POP DUP2 DUP2 SUB PUSH0 DUP4 ADD MSTORE PUSH2 0x6C2 DUP2 DUP5 PUSH2 0x672 JUMP JUMPDEST SWAP1 POP SWAP3 SWAP2 POP POP JUMP JUMPDEST PUSH0 PUSH20 0xFFFFFFFFFFFFFFFFFFFFFFFFFFFFFFFFFFFFFFFF DUP3 AND SWAP1 POP SWAP2 SWAP1 POP JUMP JUMPDEST PUSH0 PUSH2 0x6F3 DUP3 PUSH2 0x6CA JUMP JUMPDEST SWAP1 POP SWAP2 SWAP1 POP JUMP JUMPDEST PUSH2 0x703 DUP2 PUSH2 0x6E9 JUMP JUMPDEST DUP3 MSTORE POP POP JUMP JUMPDEST PUSH0 PUSH1 0x20 DUP3 ADD SWAP1 POP PUSH2 0x71C PUSH0 DUP4 ADD DUP5 PUSH2 0x6FA JUMP JUMPDEST SWAP3 SWAP2 POP POP JUMP JUMPDEST PUSH0 DUP1 REVERT JUMPDEST PUSH0 DUP1 REVERT JUMPDEST PUSH32 0x4E487B7100000000000000000000000000000000000000000000000000000000 PUSH0 MSTORE PUSH1 0x41 PUSH1 0x4 MSTORE PUSH1 0x24 PUSH0 REVERT JUMPDEST PUSH2 0x760 DUP3 PUSH2 0x662 JUMP JUMPDEST DUP2 ADD DUP2 DUP2 LT PUSH8 0xFFFFFFFFFFFFFFFF DUP3 GT OR ISZERO PUSH2 0x77F JUMPI PUSH2 0x77E PUSH2 0x72A JUMP JUMPDEST JUMPDEST DUP1 PUSH1 0x40 MSTORE POP POP POP JUMP JUMPDEST PUSH0 PUSH2 0x791 PUSH2 0x5B9 JUMP JUMPDEST SWAP1 POP PUSH2 0x79D DUP3 DUP3 PUSH2 0x757 JUMP JUMPDEST SWAP2 SWAP1 POP JUMP JUMPDEST PUSH0 PUSH8 0xFFFFFFFFFFFFFFFF DUP3 GT ISZERO PUSH2 0x7BC JUMPI PUSH2 0x7BB PUSH2 0x72A JUMP JUMPDEST JUMPDEST PUSH2 0x7C5 DUP3 PUSH2 0x662 JUMP JUMPDEST SWAP1 POP PUSH1 0x20 DUP2 ADD SWAP1 POP SWAP2 SWAP1 POP JUMP JUMPDEST DUP3 DUP2 DUP4 CALLDATACOPY PUSH0 DUP4 DUP4 ADD MSTORE POP POP POP JUMP JUMPDEST PUSH0 PUSH2 0x7F2 PUSH2 0x7ED DUP5 PUSH2 0x7A2 JUMP JUMPDEST PUSH2 0x788 JUMP JUMPDEST SWAP1 POP DUP3 DUP2 MSTORE PUSH1 0x20 DUP2 ADD DUP5 DUP5 DUP5 ADD GT ISZERO PUSH2 0x80E JUMPI PUSH2 0x80D PUSH2 0x726 JUMP JUMPDEST JUMPDEST PUSH2 0x819 DUP5 DUP3 DUP6 PUSH2 0x7D2 JUMP JUMPDEST POP SWAP4 SWAP3 POP POP POP JUMP JUMPDEST PUSH0 DUP3 PUSH1 0x1F DUP4 ADD SLT PUSH2 0x835 JUMPI PUSH2 0x834 PUSH2 0x722 JUMP JUMPDEST JUMPDEST DUP2 CALLDATALOAD PUSH2 0x845 DUP5 DUP3 PUSH1 0x20 DUP7 ADD PUSH2 0x7E0 JUMP JUMPDEST SWAP2 POP POP SWAP3 SWAP2 POP POP JUMP JUMPDEST PUSH0 DUP1 PUSH1 0x40 DUP4 DUP6 SUB SLT ISZERO PUSH2 0x864 JUMPI PUSH2 0x863 PUSH2 0x5C2 JUMP JUMPDEST JUMPDEST PUSH0 DUP4 ADD CALLDATALOAD PUSH8 0xFFFFFFFFFFFFFFFF DUP2 GT ISZERO PUSH2 0x881 JUMPI PUSH2 0x880 PUSH2 0x5C6 JUMP JUMPDEST JUMPDEST PUSH2 0x88D DUP6 DUP3 DUP7 ADD PUSH2 0x821 JUMP JUMPDEST SWAP3 POP POP PUSH1 0x20 PUSH2 0x89E DUP6 DUP3 DUP7 ADD PUSH2 0x5FB JUMP JUMPDEST SWAP2 POP POP SWAP3 POP SWAP3 SWAP1 POP JUMP JUMPDEST PUSH32 0x796F75206861766520746F20626520746865206F776E65720000000000000000 PUSH0 DUP3 ADD MSTORE POP JUMP JUMPDEST PUSH0 PUSH2 0x8DC PUSH1 0x18 DUP4 PUSH2 0x644 JUMP JUMPDEST SWAP2 POP PUSH2 0x8E7 DUP3 PUSH2 0x8A8 JUMP JUMPDEST PUSH1 0x20 DUP3 ADD SWAP1 POP SWAP2 SWAP1 POP JUMP JUMPDEST PUSH0 PUSH1 0x20 DUP3 ADD SWAP1 POP DUP2 DUP2 SUB PUSH0 DUP4 ADD MSTORE PUSH2 0x909 DUP2 PUSH2 0x8D0 JUMP JUMPDEST SWAP1 POP SWAP2 SWAP1 POP JUMP JUMPDEST PUSH32 0x4E487B7100000000000000000000000000000000000000000000000000000000 PUSH0 MSTORE PUSH1 0x22 PUSH1 0x4 MSTORE PUSH1 0x24 PUSH0 REVERT JUMPDEST PUSH0 PUSH1 0x2 DUP3 DIV SWAP1 POP PUSH1 0x1 DUP3 AND DUP1 PUSH2 0x954 JUMPI PUSH1 0x7F DUP3 AND SWAP2 POP JUMPDEST PUSH1 0x20 DUP3 LT DUP2 SUB PUSH2 0x967 JUMPI PUSH2 0x966 PUSH2 0x910 JUMP JUMPDEST JUMPDEST POP SWAP2 SWAP1 POP JUMP JUMPDEST PUSH0 DUP2 SWAP1 POP DUP2 PUSH0 MSTORE PUSH1 0x20 PUSH0 KECCAK256 SWAP1 POP SWAP2 SWAP1 POP JUMP JUMPDEST PUSH0 PUSH1 0x20 PUSH1 0x1F DUP4 ADD DIV SWAP1 POP SWAP2 SWAP1 POP JUMP JUMPDEST PUSH0 DUP3 DUP3 SHL SWAP1 POP SWAP3 SWAP2 POP POP JUMP JUMPDEST PUSH0 PUSH1 0x8 DUP4 MUL PUSH2 0x9C9 PUSH32 0xFFFFFFFFFFFFFFFFFFFFFFFFFFFFFFFFFFFFFFFFFFFFFFFFFFFFFFFFFFFFFFFF DUP3 PUSH2 0x98E JUMP JUMPDEST PUSH2 0x9D3 DUP7 DUP4 PUSH2 0x98E JUMP JUMPDEST SWAP6 POP DUP1 NOT DUP5 AND SWAP4 POP DUP1 DUP7 AND DUP5 OR SWAP3 POP POP POP SWAP4 SWAP3 POP POP POP JUMP JUMPDEST PUSH0 DUP2 SWAP1 POP SWAP2 SWAP1 POP JUMP JUMPDEST PUSH0 DUP2 SWAP1 POP SWAP2 SWAP1 POP JUMP JUMPDEST PUSH0 PUSH2 0xA17 PUSH2 0xA12 PUSH2 0xA0D DUP5 PUSH2 0x9EB JUMP JUMPDEST PUSH2 0x9F4 JUMP JUMPDEST PUSH2 0x9EB JUMP JUMPDEST SWAP1 POP SWAP2 SWAP1 POP JUMP JUMPDEST PUSH0 DUP2 SWAP1 POP SWAP2 SWAP1 POP JUMP JUMPDEST PUSH2 0xA30 DUP4 PUSH2 0x9FD JUMP JUMPDEST PUSH2 0xA44 PUSH2 0xA3C DUP3 PUSH2 0xA1E JUMP JUMPDEST DUP5 DUP5 SLOAD PUSH2 0x99A JUMP JUMPDEST DUP3 SSTORE POP POP POP POP JUMP JUMPDEST PUSH0 SWAP1 JUMP JUMPDEST PUSH2 0xA58 PUSH2 0xA4C JUMP JUMPDEST PUSH2 0xA63 DUP2 DUP5 DUP5 PUSH2 0xA27 JUMP JUMPDEST POP POP POP JUMP JUMPDEST JUMPDEST DUP2 DUP2 LT ISZERO PUSH2 0xA86 JUMPI PUSH2 0xA7B PUSH0 DUP3 PUSH2 0xA50 JUMP JUMPDEST PUSH1 0x1 DUP2 ADD SWAP1 POP PUSH2 0xA69 JUMP JUMPDEST POP POP JUMP JUMPDEST PUSH1 0x1F DUP3 GT ISZERO PUSH2 0xACB JUMPI PUSH2 0xA9C DUP2 PUSH2 0x96D JUMP JUMPDEST PUSH2 0xAA5 DUP5 PUSH2 0x97F JUMP JUMPDEST DUP2 ADD PUSH1 0x20 DUP6 LT ISZERO PUSH2 0xAB4 JUMPI DUP2 SWAP1 POP JUMPDEST PUSH2 0xAC8 PUSH2 0xAC0 DUP6 PUSH2 0x97F JUMP JUMPDEST DUP4 ADD DUP3 PUSH2 0xA68 JUMP JUMPDEST POP POP JUMPDEST POP POP POP JUMP JUMPDEST PUSH0 DUP3 DUP3 SHR SWAP1 POP SWAP3 SWAP2 POP POP JUMP JUMPDEST PUSH0 PUSH2 0xAEB PUSH0 NOT DUP5 PUSH1 0x8 MUL PUSH2 0xAD0 JUMP JUMPDEST NOT DUP1 DUP4 AND SWAP2 POP POP SWAP3 SWAP2 POP POP JUMP JUMPDEST PUSH0 PUSH2 0xB03 DUP4 DUP4 PUSH2 0xADC JUMP JUMPDEST SWAP2 POP DUP3 PUSH1 0x2 MUL DUP3 OR SWAP1 POP SWAP3 SWAP2 POP POP JUMP JUMPDEST PUSH2 0xB1C DUP3 PUSH2 0x63A JUMP JUMPDEST PUSH8 0xFFFFFFFFFFFFFFFF DUP2 GT ISZERO PUSH2 0xB35 JUMPI PUSH2 0xB34 PUSH2 0x72A JUMP JUMPDEST JUMPDEST PUSH2 0xB3F DUP3 SLOAD PUSH2 0x93D JUMP JUMPDEST PUSH2 0xB4A DUP3 DUP3 DUP6 PUSH2 0xA8A JUMP JUMPDEST PUSH0 PUSH1 0x20 SWAP1 POP PUSH1 0x1F DUP4 GT PUSH1 0x1 DUP2 EQ PUSH2 0xB7B JUMPI PUSH0 DUP5 ISZERO PUSH2 0xB69 JUMPI DUP3 DUP8 ADD MLOAD SWAP1 POP JUMPDEST PUSH2 0xB73 DUP6 DUP3 PUSH2 0xAF8 JUMP JUMPDEST DUP7 SSTORE POP PUSH2 0xBDA JUMP JUMPDEST PUSH1 0x1F NOT DUP5 AND PUSH2 0xB89 DUP7 PUSH2 0x96D JUMP JUMPDEST PUSH0 JUMPDEST DUP3 DUP2 LT ISZERO PUSH2 0xBB0 JUMPI DUP5 DUP10 ADD MLOAD DUP3 SSTORE PUSH1 0x1 DUP3 ADD SWAP2 POP PUSH1 0x20 DUP6 ADD SWAP5 POP PUSH1 0x20 DUP2 ADD SWAP1 POP PUSH2 0xB8B JUMP JUMPDEST DUP7 DUP4 LT ISZERO PUSH2 0xBCD JUMPI DUP5 DUP10 ADD MLOAD PUSH2 0xBC9 PUSH1 0x1F DUP10 AND DUP3 PUSH2 0xADC JUMP JUMPDEST DUP4 SSTORE POP JUMPDEST PUSH1 0x1 PUSH1 0x2 DUP9 MUL ADD DUP9 SSTORE POP POP POP JUMPDEST POP POP POP POP POP POP JUMP JUMPDEST PUSH2 0xBEB DUP2 PUSH2 0x9EB JUMP JUMPDEST DUP3 MSTORE POP POP JUMP JUMPDEST PUSH0 PUSH1 0x40 DUP3 ADD SWAP1 POP DUP2 DUP2 SUB PUSH0 DUP4 ADD MSTORE PUSH2 0xC09 DUP2 DUP6 PUSH2 0x672 JUMP JUMPDEST SWAP1 POP PUSH2 0xC18 PUSH1 0x20 DUP4 ADD DUP5 PUSH2 0xBE2 JUMP JUMPDEST SWAP4 SWAP3 POP POP POP JUMP INVALID LOG2 PUSH5 0x6970667358 0x22 SLT KECCAK256 EXTCODESIZE 0xDF PUSH31 0xBC0606B09FC4B324730780840FBDE16EEDACAD3E3426D847BF2736D97C6473 PUSH16 0x6C634300081A00330000000000000000 "
				},
				"gasEstimates": {
					"creation": {
						"codeDepositCost": "631400",
						"executionCost": "24927",
						"totalCost": "656327"
					},
					"external": {
						"MyName(uint128)": "infinite",
						"getName(uint128)": "infinite",
						"owner()": "2549",
						"resetName(uint128)": "infinite",
						"setName(string,uint128)": "infinite"
					}
				},
				"methodIdentifiers": {
					"MyName(uint128)": "411bc8c2",
					"getName(uint128)": "2b64d441",
					"owner()": "8da5cb5b",
					"resetName(uint128)": "005b8a0f",
					"setName(string,uint128)": "997db5ce"
				}
			},
			"storageLayout": {
				"storage": [
					{
						"astId": 3,
						"contract": "contracts/User.sol:User",
						"label": "owner",
						"offset": 0,
						"slot": "0",
						"type": "t_address"
					},
					{
						"astId": 43,
						"contract": "contracts/User.sol:User",
						"label": "MyName",
						"offset": 0,
						"slot": "1",
						"type": "t_mapping(t_uint128,t_string_storage)"
					}
				],
				"types": {
					"t_address": {
						"encoding": "inplace",
						"label": "address",
						"numberOfBytes": "20"
					},
					"t_mapping(t_uint128,t_string_storage)": {
						"encoding": "mapping",
						"key": "t_uint128",
						"label": "mapping(uint128 => string)",
						"numberOfBytes": "32",
						"value": "t_string_storage"
					},
					"t_string_storage": {
						"encoding": "bytes",
						"label": "string",
						"numberOfBytes": "32"
					},
					"t_uint128": {
						"encoding": "inplace",
						"label": "uint128",
						"numberOfBytes": "16"
					}
				}
			},
			"userdoc": {
				"kind": "user",
				"methods": {},
				"version": 1
			}
		}
	}
}