{
	"data": {
		"bytecode": {
			"linkReferences": {},
			"object": "60806040525f805562036c656001553480156018575f80fd5b50610281806100265f395ff3fe608060405234801561000f575f80fd5b5060043610610060575f3560e01c80632baeceb7146100645780634ff3eaa41461006e57806361bc221a1461008a578063a87d942c146100a8578063d09de08a146100c6578063fd895292146100d0575b5f80fd5b61006c6100da565b005b61008860048036038101906100839190610168565b6100f2565b005b610092610101565b60405161009f91906101ab565b60405180910390f35b6100b0610106565b6040516100bd91906101ab565b60405180910390f35b6100ce61010e565b005b6100d8610123565b005b5f808154809291906100eb906101f1565b9190505550565b8063ffffffff165f8190555050565b5f5481565b5f8054905090565b60015f5461011c9190610218565b5f81905550565b5f8081905550565b5f80fd5b5f63ffffffff82169050919050565b6101478161012f565b8114610151575f80fd5b50565b5f813590506101628161013e565b92915050565b5f6020828403121561017d5761017c61012b565b5b5f61018a84828501610154565b91505092915050565b5f819050919050565b6101a581610193565b82525050565b5f6020820190506101be5f83018461019c565b92915050565b7f4e487b71000000000000000000000000000000000000000000000000000000005f52601160045260245ffd5b5f6101fb82610193565b91505f820361020d5761020c6101c4565b5b600182039050919050565b5f61022282610193565b915061022d83610193565b9250828201905080821115610245576102446101c4565b5b9291505056fea2646970667358221220bb43130987456ff79dd98269e59ac278cab763a5207d504e88e2a8a6ec4779e664736f6c634300081a0033",
			"opcodes": "PUSH1 0x80 PUSH1 0x40 MSTORE PUSH0 DUP1 SSTORE PUSH3 0x36C65 PUSH1 0x1 SSTORE CALLVALUE DUP1 ISZERO PUSH1 0x18 JUMPI PUSH0 DUP1 REVERT JUMPDEST POP PUSH2 0x281 DUP1 PUSH2 0x26 PUSH0 CODECOPY PUSH0 RETURN INVALID PUSH1 0x80 PUSH1 0x40 MSTORE CALLVALUE DUP1 ISZERO PUSH2 0xF JUMPI PUSH0 DUP1 REVERT JUMPDEST POP PUSH1 0x4 CALLDATASIZE LT PUSH2 0x60 JUMPI PUSH0 CALLDATALOAD PUSH1 0xE0 SHR DUP1 PUSH4 0x2BAECEB7 EQ PUSH2 0x64 JUMPI DUP1 PUSH4 0x4FF3EAA4 EQ PUSH2 0x6E JUMPI DUP1 PUSH4 0x61BC221A EQ PUSH2 0x8A JUMPI DUP1 PUSH4 0xA87D942C EQ PUSH2 0xA8 JUMPI DUP1 PUSH4 0xD09DE08A EQ PUSH2 0xC6 JUMPI DUP1 PUSH4 0xFD895292 EQ PUSH2 0xD0 JUMPI JUMPDEST PUSH0 DUP1 REVERT JUMPDEST PUSH2 0x6C PUSH2 0xDA JUMP JUMPDEST STOP JUMPDEST PUSH2 0x88 PUSH1 0x4 DUP1 CALLDATASIZE SUB DUP2 ADD SWAP1 PUSH2 0x83 SWAP2 SWAP1 PUSH2 0x168 JUMP JUMPDEST PUSH2 0xF2 JUMP JUMPDEST STOP JUMPDEST PUSH2 0x92 PUSH2 0x101 JUMP JUMPDEST PUSH1 0x40 MLOAD PUSH2 0x9F SWAP2 SWAP1 PUSH2 0x1AB JUMP JUMPDEST PUSH1 0x40 MLOAD DUP1 SWAP2 SUB SWAP1 RETURN JUMPDEST PUSH2 0xB0 PUSH2 0x106 JUMP JUMPDEST PUSH1 0x40 MLOAD PUSH2 0xBD SWAP2 SWAP1 PUSH2 0x1AB JUMP JUMPDEST PUSH1 0x40 MLOAD DUP1 SWAP2 SUB SWAP1 RETURN JUMPDEST PUSH2 0xCE PUSH2 0x10E JUMP JUMPDEST STOP JUMPDEST PUSH2 0xD8 PUSH2 0x123 JUMP JUMPDEST STOP JUMPDEST PUSH0 DUP1 DUP2 SLOAD DUP1 SWAP3 SWAP2 SWAP1 PUSH2 0xEB SWAP1 PUSH2 0x1F1 JUMP JUMPDEST SWAP2 SWAP1 POP SSTORE POP JUMP JUMPDEST DUP1 PUSH4 0xFFFFFFFF AND PUSH0 DUP2 SWAP1 SSTORE POP POP JUMP JUMPDEST PUSH0 SLOAD DUP2 JUMP JUMPDEST PUSH0 DUP1 SLOAD SWAP1 POP SWAP1 JUMP JUMPDEST PUSH1 0x1 PUSH0 SLOAD PUSH2 0x11C SWAP2 SWAP1 PUSH2 0x218 JUMP JUMPDEST PUSH0 DUP2 SWAP1 SSTORE POP JUMP JUMPDEST PUSH0 DUP1 DUP2 SWAP1 SSTORE POP JUMP JUMPDEST PUSH0 DUP1 REVERT JUMPDEST PUSH0 PUSH4 0xFFFFFFFF DUP3 AND SWAP1 POP SWAP2 SWAP1 POP JUMP JUMPDEST PUSH2 0x147 DUP2 PUSH2 0x12F JUMP JUMPDEST DUP2 EQ PUSH2 0x151 JUMPI PUSH0 DUP1 REVERT JUMPDEST POP JUMP JUMPDEST PUSH0 DUP2 CALLDATALOAD SWAP1 POP PUSH2 0x162 DUP2 PUSH2 0x13E JUMP JUMPDEST SWAP3 SWAP2 POP POP JUMP JUMPDEST PUSH0 PUSH1 0x20 DUP3 DUP5 SUB SLT ISZERO PUSH2 0x17D JUMPI PUSH2 0x17C PUSH2 0x12B JUMP JUMPDEST JUMPDEST PUSH0 PUSH2 0x18A DUP5 DUP3 DUP6 ADD PUSH2 0x154 JUMP JUMPDEST SWAP2 POP POP SWAP3 SWAP2 POP POP JUMP JUMPDEST PUSH0 DUP2 SWAP1 POP SWAP2 SWAP1 POP JUMP JUMPDEST PUSH2 0x1A5 DUP2 PUSH2 0x193 JUMP JUMPDEST DUP3 MSTORE POP POP JUMP JUMPDEST PUSH0 PUSH1 0x20 DUP3 ADD SWAP1 POP PUSH2 0x1BE PUSH0 DUP4 ADD DUP5 PUSH2 0x19C JUMP JUMPDEST SWAP3 SWAP2 POP POP JUMP JUMPDEST PUSH32 0x4E487B7100000000000000000000000000000000000000000000000000000000 PUSH0 MSTORE PUSH1 0x11 PUSH1 0x4 MSTORE PUSH1 0x24 PUSH0 REVERT JUMPDEST PUSH0 PUSH2 0x1FB DUP3 PUSH2 0x193 JUMP JUMPDEST SWAP2 POP PUSH0 DUP3 SUB PUSH2 0x20D JUMPI PUSH2 0x20C PUSH2 0x1C4 JUMP JUMPDEST JUMPDEST PUSH1 0x1 DUP3 SUB SWAP1 POP SWAP2 SWAP1 POP JUMP JUMPDEST PUSH0 PUSH2 0x222 DUP3 PUSH2 0x193 JUMP JUMPDEST SWAP2 POP PUSH2 0x22D DUP4 PUSH2 0x193 JUMP JUMPDEST SWAP3 POP DUP3 DUP3 ADD SWAP1 POP DUP1 DUP3 GT ISZERO PUSH2 0x245 JUMPI PUSH2 0x244 PUSH2 0x1C4 JUMP JUMPDEST JUMPDEST SWAP3 SWAP2 POP POP JUMP INVALID LOG2 PUSH5 0x6970667358 0x22 SLT KECCAK256 0xBB NUMBER SGT MULMOD DUP8 GASLIMIT PUSH16 0xF79DD98269E59AC278CAB763A5207D50 0x4E DUP9 0xE2 0xA8 0xA6 0xEC SELFBALANCE PUSH26 0xE664736F6C634300081A00330000000000000000000000000000 "
		},
		"gasEstimates": {
			"creation": {
				"codeDepositCost": "128200",
				"executionCost": "27286",
				"totalCost": "155486"
			},
			"external": {
				"counter()": "2446",
				"decrement()": "24474",
				"getCount()": "2476",
				"increment()": "infinite",
				"resetCount()": "5244",
				"setCount(uint32)": "22526"
			}
		},
		"methodIdentifiers": {
			"counter()": "61bc221a",
			"decrement()": "2baeceb7",
			"getCount()": "a87d942c",
			"increment()": "d09de08a",
			"resetCount()": "fd895292",
			"setCount(uint32)": "4ff3eaa4"
		}
	},
	"abi": [
		{
			"inputs": [],
			"name": "counter",
			"outputs": [
				{
					"internalType": "uint256",
					"name": "",
					"type": "uint256"
				}
			],
			"stateMutability": "view",
			"type": "function"
		},
		{
			"inputs": [],
			"name": "decrement",
			"outputs": [],
			"stateMutability": "nonpayable",
			"type": "function"
		},
		{
			"inputs": [],
			"name": "getCount",
			"outputs": [
				{
					"internalType": "uint256",
					"name": "",
					"type": "uint256"
				}
			],
			"stateMutability": "view",
			"type": "function"
		},
		{
			"inputs": [],
			"name": "increment",
			"outputs": [],
			"stateMutability": "nonpayable",
			"type": "function"
		},
		{
			"inputs": [],
			"name": "resetCount",
			"outputs": [],
			"stateMutability": "nonpayable",
			"type": "function"
		},
		{
			"inputs": [
				{
					"internalType": "uint32",
					"name": "_count",
					"type": "uint32"
				}
			],
			"name": "setCount",
			"outputs": [],
			"stateMutability": "nonpayable",
			"type": "function"
		}
	]
}